:03000000020008F3
:0D0061009040007495F0904001740CF090F8
:0C006E004002749EF09040037479F09002
:0C007A00400474ECF090400574D3F0904A
:0C0086004006740AF090400774E4F0900B
:0C00920040087435F0904009746BF09049
:0C009E00400A7460F090400B74EDF0908C
:0C00AA00400C7425F090400D7425F0907F
:0C00B600400E7433F090400F74D9F090AD
:0C00C20040107426F0904011748CF090F7
:0C00CE00401274D1F09040137499F0902F
:0C00DA00401474EEF0904015749CF090FF
:0C00E60040167411F0904017748DF090DB
:0C00F200401874BCF090401974BFF090EE
:0C00FE00401A7468F090401B74AAF09047
:0C010A00401C74B3F090401D74F9F0909C
:0C011600401E74DFF090401F74DCF0907D
:0C01220040207480F090402174B8F090F0
:0C012E0040227428F09040237460F09090
:0C013A004024742BF09040257421F090BC
:0C01460040267403F09040277489F0906C
:0C015200402874EFF0904029742CF090CD
:0C015E00402A74E6F090402B7493F0905F
:0C016A00402C746FF090402D74BBF0909E
:0C017600402E74A7F090402F7456F090BB
:0C01820040307428F090403174B5F090CB
:0C018E0040327499F090403374D7F09028
:0C019A0040347469F090403574DBF09044
:0C01A6004036746BF09040377409F09004
:0C01B200403874F7F0904039740BF09066
:0C01BE00403A7484F090403B74E5F090EF
:0C01CA00403C74B2F090403D74F8F0909E
:0C01D600403E7479F090403F74C4F090FB
:0C01E200404074D5F0904041747BF090D8
:0C01EE0040427406F09040437445F090CD
:0C01FA00404474B5F09040457422F09031
:0C020600404674C2F09040477428F0900D
:0C021200404874F8F0904049747AF09075
:0C021E00404A7439F090404B7498F09006
:0C022A00404C74E7F090404D74A4F0903C
:0C023600404E7454F090404F7445F0901E
:0C024200405074A2F0904051740DF090F8
:0C024E00405274CAF090405374B1F0901C
:0C025A004054743BF0904055749EF090AE
:0C02660040567459F090405774F9F09025
:0C027200405874FBF090405974AAF090C2
:0C027E00405A7430F090405B7497F09090
:0C028A00405C746DF090405D749BF0903F
:0C029600405E7424F090405F746FF090A4
:0C02A20040607474F09040617430F09083
:0C02AE00406274A7F090406374AFF090C1
:0C02BA00406474FFF09040657484F09084
:0C02C6004066742CF09040677449F09082
:0C02D2004068741BF09040697430F0909C
:0C02DE00406A749FF090406B74B5F09083
:0C02EA00406C7496F090406D743DF090F4
:0C02F600406E748FF090406F74C2F09066
:0C030200407074F0F0904071743BF0907B
:0C030E00407274FCF090407374D4F090C6
:0C031A00407474B2F09040757478F0905C
:0C03260040767405F090407774D3F0909E
:0C033200407874CBF09040797480F0901B
:0C033E00407A7488F090407B7485F09049
:0C034A00407C7495F090407D747AF09037
:0C035600407E74B7F090407F7464F0901B
:0C036200410074E4F090410174C4F0907C
:0C036E0041027431F09041037431F090B2
:0C037A0041047408F09041057464F09098
:0C0386004106741BF090410774C5F09014
:0C03920041087440F09041097421F09083
:0C039E00410A74D5F090410B743FF090C0
:0C03AA00410C7482F090410D7498F090AA
:0C03B600410E74B5F090410F748BF09074
:0C03C2004110740CF090411174DAF090BE
:0C03CE00411274DEF0904113740AF090AC
:0C03DA0041147473F090411574D6F0903B
:0C03E60041167475F09041177480F0907F
:0C03F20041187481F0904119747BF09068
:0C03FE00411A74AFF090411B7490F09015
:0C040A00411C7451F090411D74A2F09050
:0C041600411E7422F090411F74DFF09032
:0C04220041207460F090412174ADF09016
:0C042E004122741AF0904123745AF0909F
:0C043A0041247469F0904125744EF0904C
:0C04460041267487F090412774F5F09077
:0C04520041287482F09041297419F09048
:0C045E00412A74C7F090412B74DDF0902F
:0C046A00412C74AFF090412D74EBF09029
:0C047600412E747AF090412F743EF090FB
:0C048200413074F3F090413174DAF090D6
:0C048E00413274B1F090413374E1F09001
:0C049A00413474EDF090413574D2F090C4
:0C04A6004136742EF09041377426F0901F
:0C04B2004138747DF090413974D5F09011
:0C04BE00413A74B7F090413B74C3F090D9
:0C04CA00413C7413F090413D7409F09027
:0C04D600413E74D5F090413F7411F0904D
:0C04E200414074DEF0904141749EF090A7
:0C04EE0041427412F0904143746AF09097
:0C04FA0041447451F090414574F5F090BD
:0C05060041467483F0904147741BF09054
:0C051200414874DEF090414974ABF09059
:0C051E00414A746DF090414B74D7F0908E
:0C052A00414C74ADF090414D7432F090E3
:0C053600414E7407F090414F746CF0903F
:0C05420041507495F0904151742AF090E3
:0C054E0041527456F090415374FFF0903D
:0C055A00415474D7F090415574E7F090C4
:0B0566004156E4F09041577485F0907E
:0C057100415874BEF090415974B4F090F1
:0C057D00415A743EF090415B74EFF09026
:0C058900415C7473F090415D7488F09048
:0C059500415E7475F090415F74D9F090E5
:0C05A1004160745CF0904161746AF0905D
:0C05AD00416274B1F09041637458F0900A
:0C05B9004164744AF090416574BCF090FD
:0C05C50041667480F09041677453F09020
:0C05D10041687463F09041697448F09038
:0C05DD00416A74FDF090416B74A0F09036
:0C05E900416C74FCF090416D74ADF0901A
:0C05F500416E74D9F090416F7434F090A6
:0C060100417074FBF090417174D3F090D4
:0C060D00417274A9F090417374E8F09001
:0C06190041747418F09041757432F09038
:0C06250041767433F09041777478F090C7
:0C063100417874B0F09041797408F090AA
:0C063D00417A74E4F090417B747BF090F3
:0C064900417C7459F090417D74F2F090F7
:0C065500417E7445F090417F748AF09063
:0C0661004200746BF090420174F3F090C2
:0C066D0042027461F09042037486F09029
:0C06790042047413F0904205742CF090C1
:0C068500420674F5F0904207741BF090E0
:0C069100420874CAF09042097494F09082
:0C069D00420A749FF090420B7412F0901F
:0C06A900420C74DAF090420D74DAF0900C
:0C06B500420E74CCF090420F7426F090BE
:0C06C100421074D9F09042117473F09054
:0C06CD004212742EF09042137466F090FC
:0C06D90042147411F09042157463F0900C
:0C06E500421674EEF09042177472F09010
:0C06F10042187443F09042197440F090DD
:0C06FD00421A7497F090421B7455F09064
:0C070900421C744CF090421D7406F090ED
:0C071500421E7420F090421F7423F090EC
:0C0721004220747FF09042217447F09059
:0C072D00422274D7F0904223749FF09099
:0C073900422474D4F090422574DEF0904D
:0C074500422674FCF09042277476F0907D
:0C07510042287410F090422974D3F090FC
:0C075D00422A7419F090422B746CF0904A
:0C076900422C7490F090422D7444F090EB
:0C077500422E7458F090422F74A9F090AE
:0C078100423074D7F0904231744AF0907E
:0C078D0042327466F09042337428F09001
:0C07990042347496F09042357424F090C5
:0C07A50042367494F090423774F6F090E5
:0C07B10042387408F090423974F4F09063
:0C07BD00423A747BF090423B741AF090BA
:0C07C900423C744DF090423D7407F090EB
:0C07D500423E7486F090423F743BF0906E
:0C07E1004240742AF09042417484F09071
:0C07ED00424274F9F090424374BAF0905C
:0C07F9004244744AF090424574DDF090D8
:0C0805004246743DF090424774D7F090DA
:0C08110042487407F09042497485F09052
:0C081D00424A74C6F090424B7467F090A1
:0C082900424C7418F090424D745BF0904B
:0C083500424E74ABF090424F74BAF09049
:0C0841004250745DF090425174F2F0904F
:0C084D0042527435F0904253744EF0900B
:0C085900425474C4F09042557461F09059
:0C086500425674A6F09042577406F090C2
:0C08710042587404F09042597455F09005
:0C087D00425A74CFF090425B7468F09017
:0C088900425C7492F090425D7464F09048
:0C089500425E74DBF090425F7490F090C3
:0C08A1004260748BF090426174CFF090C4
:0C08AD0042627458F09042637450F09066
:0B08B9004264E4F0904265747BF09014
:0C08C400426674D3F090426774B6F09066
:0C08D000426874E4F090426974CFF0902C
:0C08DC00426A7460F090426B744AF09025
:0C08E800426C7469F090426D74C2F09094
:0C08F400426E7470F090426F743DF09002
:0C0900004270740FF090427174C4F090CB
:0C090C0042727403F0904273742BF09060
:0C0918004274744DF09042757487F090AA
:0C092400427674FAF0904277742CF09048
:0C09300042787434F0904279747FF090AB
:0C093C00427A7477F090427B747AF0905D
:0C094800427C746AF090427D7485F0904F
:0C095400427E7448F090427F749BF0904B
:0C096000430074E0F090430174FAF09042
:0C096C004302747DF090430374F4F0909B
:0C0978004304749EF090430574FFF0905F
:0C09840043067431F0904307748AF09031
:0C0990004308744AF09043097417F0907B
:0C099C00430A747AF090430B74E9F09069
:0C09A800430C7437F090430D7486F090FF
:0C09B400430E7415F090430F7427F09070
:0C09C0004310742BF09043117429F09048
:0C09CC0043127406F09043137453F09033
:0C09D800431474E1F09043157408F09093
:0C09E400431674D2F09043177411F09089
:0C09F000431874C6F090431974EFF090A7
:0C09FC00431A7443F090431B74B6F09053
:0C0A0800431C74C8F090431D7493F090E0
:0C0A1400431E744FF090431F7427F090B5
:0C0A2000432074D1F09043217462F090E8
:0C0A2C00432274CFF09043237412F0902A
:0C0A3800432474C3F090432574E6F09052
:0C0A4400432674A4F09043277432F09015
:0C0A500043287485F090432974A6F090B0
:0C0A5C00432A744FF090432B7426F09056
:0C0A6800432C7412F090432D7466F09043
:0C0A7400432E7487F090432F745AF090CA
:0C0A80004330748FF090433174AEF0905E
:0C0A8C0043327457F090433374E2F09052
:0C0A98004334747CF0904335748EF09071
:0C0AA400433674FBF090433774A6F090CA
:0C0AB000433874E3F0904339746AF0900E
:0C0ABC00433A7484F090433B74F7F090D0
:0C0AC800433C7492F090433D745DF0904C
:0C0AD400433E7466F090433F7409F090BC
:0C0AE00043407417F090434174FCF09008
:0C0AEC004342744AF09043437498F09029
:0C0AF8004344741EF090434574DAF09003
:0C0B0400434674B7F090434774A1F09092
:0C0B100043487494F090434974E8F0905E
:0C0B1C00434A7459F090434B74AEF090C3
:0C0B2800434C743AF090434D74A3F090DD
:0C0B3400434E7480F090434F7413F09017
:0C0B400043507413F09043517481F09006
:0C0B4C004352740AF0904353741CF09064
:0C0B58004354746FF0904355740CF090FF
:0C0B640043567416F09043577467F090ED
:0C0B700043587448F0904359742AF090E8
:0C0B7C00435A741FF090435B7440F090EB
:0C0B8800435C748FF090435D7497F09014
:0C0B9400435E74BBF090435F7455F0901A
:0C0BA00043607452F09043617435F09093
:0C0BAC0043627488F09043637465F0901D
:0C0BB800436474D8F09043657401F09021
:0C0BC4004366748FF09043677477F090E4
:0C0BD00043687486F090436974A5F090AF
:0C0BDC00436A7455F090436B7466F0900F
:0C0BE800436C7453F090436D7402F09065
:0C0BF400436E74F3F090436F7441F09076
:0C0C0000437074F4F09043717426F0907F
:0C0C0C00437274CCF090437374D7F090E6
:0C0C18004374740AF090437574EAF09085
:0C0C2400437674E4F0904377743CF09049
:0C0C3000437874A1F09043797465F09053
:0C0C3C00437A74BAF090437B748DF09002
:0C0C4800437C7471F090437D7408F090C0
:0C0C5400437E74EEF090437F7498F090A3
:0C0C600044007401F09044017401F09015
:0C0C6C0045007401F09045017423F090E5
:0C0C7800450274C5F090450374D2F09062
:0C0C84004504746AF090450574E6F09099
:0C0C90004506748BF0904507742BF09023
:0C0C9C00450874E7F09045097441F090A1
:0C0CA800450A745AF090450B748EF090D1
:0C0CB400450C74BAF090450D7408F090E7
:0C0CC000450E741AF090450F7466F09019
:0C0CCC0045107497F090451174C4F0902E
:0C0CD800451274B7F0904513746EF09054
:0C0CE40045147454F0904515745DF090B8
:0C0CF000451674C4F09045177499F090FC
:0C0CFC0045187440F09045197463F090A6
:0C0D0800451A7465F090451B74EDF090E6
:0C0D1400451C7477F090451D74CAF090E7
:0C0D2000451E74CFF090451F74EBF0905E
:0C0D2C0045207475F090452174CFF090C4
:0C0D380045227429F0904523743CF09093
:0C0D4400452474E5F09045257427F090DC
:0C0D50004526740BF09045277454F09079
:0C0D5C00452874D0F09045297411F090E7
:0C0D6800452A747EF090452B74B2F09088
:0C0D7400452C740BF090452D7412F0908B
:0C0D8000452E749FF090452F74BDF0903C
:0C0D8C00453074BFF0904531742FF0909A
:0C0D980045327451F0904533744CF090DB
:0C0DA40045347451F0904535746DF090AA
:0C0DB0004536742FF090453774F8F09031
:0C0DBC004538742DF09045397462F090B9
:0C0DC800453A74B4F090453B741EF09066
:0C0DD400453C74A5F090453D74ECF09097
:0C0DE000453E74E9F090453F74DEF09051
:0C0DEC004540740BF090454174E9F09014
:0C0DF8004542747AF09045437472F0900C
:0C0E0400454474AEF090454574A4F09095
:0C0E100045467456F090454774AFF090D2
:0C0E1C00454874E3F090454974AFF09035
:0C0E2800454A7472F090454B7454F090F1
:0C0E3400454C7405F090454D74BEF090E4
:0C0E4000454E7414F090454F74A1F090E2
:0C0E4C0045507401F0904551744DF09039
:0C0E58004552740DF0904553748DF090DD
:0C0E640045547402F0904555747FF090E6
:0C0E7000455674CAF090455774EFF0909E
:0C0E7C00455874ECF09045597483F090D8
:0C0E8800455A74E2F090455B74A0F090B5
:0C0E9400455C7475F090455D740AF090A8
:0C0EA000455E74EFF090455F740CF0901C
:0C0EAC004560742CF09045617461F0907A
:0C0EB800456274C2F0904563745CF090D9
:0C0EC400456474DCF09045657495F09076
:0C0ED000456674C3F09045677436F090DE
:0C0EDC0045687463F09045697469F090FB
:0C0EE800456A746AF090456B7476F090D7
:0C0EF400456C7464F090456D74D2F09071
:0C0F0000456E7457F090456F7456F090E9
:0C0F0C004570747FF090457174E3F09024
:0C0F1800457274C9F090457374CAF090E3
:0C0F240045747411F0904575741FF09036
:0C0F3000457674FDF090457774FCF0905D
:0C0F3C004578741AF09045797454F090D8
:0C0F4800457A74A0F090457B7470F09026
:0C0F5400457C7442F090457D7497F0904D
:0B0F6000457E74F7F090457F746DF043
:030F6B000200037E
:05000300120F6E80FEEB
:040F6E007521007574
:030F7200224275A3
:070F75002300752480E4F560
:0B0F7C002590210175F00012131A757A
:030F8700110075E1
:030F8A001243759A
:040F8D0013007514C4
:030F9100007515D3
:0A0F94004475160090500075F0003F
:070F9E001210D4751100755B
:060FA500125075130075E7
:030FAB00140075BA
:030FAE0015457571
:0C0FB100160090510075F0001210D412D0
:060FBD0013169000002253
:0A0FC300AA82AB83ACF085082185FB
:030FCD0009228571
:030FD0000A23757C
:0A0FD3002480E4F52590200075F05D
:0C0FDD0000C002C003C00412131A850BF0
:030FE90021850C53
:030FEC0022850D4E
:060FEF0023752480E4F5E7
:0B0FF5002590208175F00012131A12E5
:0C10000012C412130FD004D003D0023031
:0C100C000027C002C003C0041212EDD087
:0A10180004D003D0027521007522F8
:0910220030752300752480E4F50B
:0A102B00258A828B838CF002131AD1
:011035002298
:0A103600AA82AB83ACF0850E218581
:031040000F2285F7
:0310430010237502
:0A1046002480E4F52590200075F0E9
:0E10500000C002C003C00412131A1212D512FF
:0C105E00130FD004D003D002300127C0D3
:0E106A0002C003C0041212EDD004D003D00265
:07107800752100752230759F
:07107F002300752480E4F555
:0A108600258A828B838CF002131A76
:01109000223D
:0D109100AA82AB83ACF0C002C003C0041201
:0C109E0012E612130FD004D003D0023071
:0C10AA000227C002C003C0041212EDD0E7
:0A10B60004D003D00275210075225A
:0910C00030752300752480E4F56D
:0A10C900258A828B838CF002131A33
:0110D30022FA
:0810D40085821785831885F061
:0A10DC00199011007401F0851482D0
:0710E6008515838516F01249
:0710ED00121585821A8583AC
:0310F4001B750B5E
:0310F70000750C75
:0510FA0041750D0085A9
:0310FF0011088550
:031102001209854A
:03110500130AD2F8
:0B1108000090120075F000120FC3757C
:0311130021007543
:03111600224075FF
:071119002300752480E4F5BA
:0B1120002590300075F00012131A1229
:06112B0012FE7F007800B7
:0A113100C3E51A9FE51B9850030266
:02113B0011FEA3
:0A113D00EF486055E51AC39FF9E57D
:0C1147001B988903C423CBC423541F6BE6
:0C115300CB541FCB6BCBFCEB2514FBEC4A
:0A115F003515FCAD168B828C838DD4
:0E116900F012138BFB5301077A0089F005F09A
:03117700EB800208
:02117A00C3139D
:0A117C00D5F0FB139202851782855F
:0A11860018838519F0C007C000129D
:061190001091D000D00711
:0A119600E51AC39FFAE51B988A04CE
:0E11A000C423CCC423541F6CCC541FCC6CCC85
:0A11AE00FDEC2514FCED3515FDAE37
:0C11B800168C828D838EF012138BFC537A
:0B11C40002077B008AF005F0EC8002BF
:0211CF00C31348
:0A11D100D5F0FB30E01F750E00752D
:0611DB000F12751000C2A6
:0511E100018517828565
:0A11E60018838519F0C007C000123D
:0611F0001036D000D0070C
:0511F6000FBF0001081D
:0311FB00021131AD
:0711FE00750E00750F11755D
:051205001000D201857C
:06120A00178285188385A0
:0512100019F002103688
:0812150085822185832285F00A
:04121D002375240011
:091221007480252450030212C060
:0C122A00AE247F00747FC39EFEE49FFF93
:09123600EE2521FEEF3522FFA890
:0C123F00238E828F8388F012138B7003C3
:03124B000212BBD1
:02124E007E0020
:03125000BE0800D5
:0C1253005066AF247800747FC39FF9E45C
:0A125F0098FAE92521F9EA3522FA90
:0C126900AB2389828A838BF012138BF96F
:0E1275008E027B007407C39AFCE49BFD8CF094
:0512830005F0E9800206
:02128800C3138E
:0E128A00D5F0FB30E027747FC39FFFE498C4CB
:0E1298000354F8CFC403CF6FCF54F8CF6FF8D4
:0E12A6007407C39AFAE49BFBEA2FF582EB383B
:0312B400F583229D
:0412B7000E021250C1
:0512BB000524021221D0
:0412C0009000002278
:0912C40075900075801075800022
:0812CD00E59060FC7580012230
:0912D50075900075801175800010
:0812DE00E59060FC758001221F
:0712E60075801275800022E3
:0612ED00759000758013EE
:0B12F300E59060FC7580017580002212
:0912FE00759000758014758000E4
:08130700E59060FC75800122F5
:07130F0075801575800022B6
:0413160075B0552237
:06003700E478FFF6D8FD9D
:0A131A00AA82AB83ACF08A268B2771
:051324008C28A821A99E
:0413290022AD238846
:04132D0029892A8D53
:041331002BA824A918
:011335002592
:091336008805890618B8FF0119A9
:0A133F00ED4E6025852982852A8382
:0A134900852BF012138BFDA38582A3
:0A1353002985832A8A828B838CF09F
:0B135D00ED121372A3AA82AB8380CEB6
:07136800852682852783859D
:03136F0028F02241
:080015007900E94400601B7A48
:05001D00009013AB7818
:030022000075A0C6
:0A00250000E493F2A308B8000205FE
:08002F00A0D9F4DAF275A0FF7C
:0E13720020F71030F6118883A88220F507F6C8
:05138000A88375830045
:011385002245
:03138600F280F7FB
:02138900F02250
:08003D007800E84400600A7934
:030045000075A0A3
:0600480000E4F309D8FCFE
:08004E007800E84400600C7921
:0B00560000900000E4F0A3D8FCD9FAF1
:0300080075812BD4
:0A000B001213A7E582600302000350
:0E138B0020F71430F6148883A88220F507E6B8
:06139900A8837583002209
:03139F00E280F7F2
:0313A200E49322AF
:0213A500E02244
:0413A7007582002229
:00000001FF
