:03000000020008F3
:0D006100901000746BF090100174F3F0909B
:0C006E0010027461F09010037486F09092
:0C007A0010047413F0901005742CF0902A
:0C008600100674F5F0901007741BF09049
:0C009200100874CAF09010097494F090EB
:0C009E00100A749FF090100B7412F09088
:0C00AA00100C74DAF090100D74DAF09075
:0C00B600100E74CCF090100F7426F09027
:0C00C200101074D9F09010117473F090BD
:0C00CE001012742EF09010137466F09065
:0C00DA0010147411F09010157463F09075
:0C00E600101674EEF09010177472F09079
:0C00F20010187443F09010197440F09046
:0C00FE00101A7497F090101B7455F090CD
:0C010A00101C744CF090101D7406F09056
:0C011600101E7420F090101F7423F09055
:0C0122001020747FF09010217447F090C2
:0C012E00102274D7F0901023749FF09002
:0C013A00102474D4F090102574DEF090B6
:0C014600102674FCF09010277476F090E6
:0C01520010287410F090102974D3F09065
:0C015E00102A7419F090102B746CF090B3
:0C016A00102C7490F090102D7444F09054
:0C017600102E7458F090102F74A9F09017
:0C018200103074D7F0901031744AF090E7
:0C018E0010327466F09010337428F0906A
:0C019A0010347496F09010357424F0902E
:0C01A60010367494F090103774F6F0904E
:0C01B20010387408F090103974F4F090CC
:0C01BE00103A747BF090103B741AF09023
:0C01CA00103C744DF090103D7407F09054
:0C01D600103E7486F090103F743BF090D7
:0C01E2001040742AF09010417484F090DA
:0C01EE00104274F9F090104374BAF090C5
:0C01FA001044744AF090104574DDF09041
:0C0206001046743DF090104774D7F09043
:0C02120010487407F09010497485F090BB
:0C021E00104A74C6F090104B7467F0900A
:0C022A00104C7418F090104D745BF090B4
:0C023600104E74ABF090104F74BAF090B2
:0C0242001050745DF090105174F2F090B8
:0C024E0010527435F0901053744EF09074
:0C025A00105474C4F09010557461F090C2
:0C026600105674A6F09010577406F0902B
:0C02720010587404F09010597455F0906E
:0C027E00105A74CFF090105B7468F09080
:0C028A00105C7492F090105D7464F090B1
:0C029600105E74DBF090105F7490F0902C
:0C02A2001060748BF090106174CFF0902D
:0C02AE0010627458F09010637450F090CF
:0B02BA001064E4F0901065747BF0907D
:0C02C500106674D3F090106774B6F090CF
:0C02D100106874E4F090106974CFF09095
:0C02DD00106A7460F090106B744AF0908E
:0C02E900106C7469F090106D74C2F090FD
:0C02F500106E7470F090106F743DF0906B
:0C0301001070740FF090107174C4F09034
:0C030D0010727403F0901073742BF090C9
:0C0319001074744DF09010757487F09013
:0C032500107674FAF0901077742CF090B1
:0C03310010787434F0901079747FF09014
:0C033D00107A7477F090107B747AF090C6
:0C034900107C746AF090107D7485F090B8
:0C035500107E7448F090107F749BF090B4
:0C036100110074E0F090110174FAF090AB
:0C036D001102747DF090110374F4F09004
:0C0379001104749EF090110574FFF090C8
:0C03850011067431F0901107748AF0909A
:0C0391001108744AF09011097417F090E4
:0C039D00110A747AF090110B74E9F090D2
:0C03A900110C7437F090110D7486F09068
:0C03B500110E7415F090110F7427F090D9
:0C03C1001110742BF09011117429F090B1
:0C03CD0011127406F09011137453F0909C
:0C03D900111474E1F09011157408F090FC
:0C03E500111674D2F09011177411F090F2
:0C03F100111874C6F090111974EFF09010
:0C03FD00111A7443F090111B74B6F090BC
:0C040900111C74C8F090111D7493F09049
:0C041500111E744FF090111F7427F0901E
:0C042100112074D1F09011217462F09051
:0C042D00112274CFF09011237412F09093
:0C043900112474C3F090112574E6F090BB
:0C044500112674A4F09011277432F0907E
:0C04510011287485F090112974A6F09019
:0C045D00112A744FF090112B7426F090BF
:0C046900112C7412F090112D7466F090AC
:0C047500112E7487F090112F745AF09033
:0C0481001130748FF090113174AEF090C7
:0C048D0011327457F090113374E2F090BB
:0C0499001134747CF0901135748EF090DA
:0C04A500113674FBF090113774A6F09033
:0C04B100113874E3F0901139746AF09077
:0C04BD00113A7484F090113B74F7F09039
:0C04C900113C7492F090113D745DF090B5
:0C04D500113E7466F090113F7409F09025
:0C04E10011407417F090114174FCF09071
:0C04ED001142744AF09011437498F09092
:0C04F9001144741EF090114574DAF0906C
:0C050500114674B7F090114774A1F090FB
:0C05110011487494F090114974E8F090C7
:0C051D00114A7459F090114B74AEF0902C
:0C052900114C743AF090114D74A3F09046
:0C053500114E7480F090114F7413F09080
:0C05410011507413F09011517481F0906F
:0C054D001152740AF0901153741CF090CD
:0C0559001154746FF0901155740CF09068
:0C05650011567416F09011577467F09056
:0C05710011587448F0901159742AF09051
:0C057D00115A741FF090115B7440F09054
:0C058900115C748FF090115D7497F0907D
:0C059500115E74BBF090115F7455F09083
:0C05A10011607452F09011617435F090FC
:0C05AD0011627488F09011637465F09086
:0C05B900116474D8F09011657401F0908A
:0C05C5001166748FF09011677477F0904D
:0C05D10011687486F090116974A5F09018
:0C05DD00116A7455F090116B7466F09078
:0C05E900116C7453F090116D7402F090CE
:0C05F500116E74F3F090116F7441F090DF
:0C060100117074F4F09011717426F090E8
:0C060D00117274CCF090117374D7F0904F
:0C0619001174740AF090117574EAF090EE
:0C062500117674E4F0901177743CF090B2
:0C063100117874A1F09011797465F090BC
:0C063D00117A74BAF090117B748DF0906B
:0C064900117C7471F090117D7408F09029
:0C065500117E74EEF090117F7498F0900C
:0C06610012007401F09012017401F0907E
:0C066D0013007401F09013017423F0904E
:0C067900130274C5F090130374D2F090CB
:0C0685001304746AF090130574E6F09002
:0C0691001306748BF0901307742BF0908C
:0C069D00130874E7F09013097441F0900A
:0C06A900130A745AF090130B748EF0903A
:0C06B500130C74BAF090130D7408F09050
:0C06C100130E741AF090130F7466F09082
:0C06CD0013107497F090131174C4F09097
:0C06D900131274B7F0901313746EF090BD
:0C06E50013147454F0901315745DF09021
:0C06F100131674C4F09013177499F09065
:0C06FD0013187440F09013197463F0900F
:0C070900131A7465F090131B74EDF0904F
:0C071500131C7477F090131D74CAF09050
:0C072100131E74CFF090131F74EBF090C7
:0C072D0013207475F090132174CFF0902D
:0C07390013227429F0901323743CF090FC
:0C074500132474E5F09013257427F09045
:0C0751001326740BF09013277454F090E2
:0C075D00132874D0F09013297411F09050
:0C076900132A747EF090132B74B2F090F1
:0C077500132C740BF090132D7412F090F4
:0C078100132E749FF090132F74BDF090A5
:0C078D00133074BFF0901331742FF09003
:0C07990013327451F0901333744CF09044
:0C07A50013347451F0901335746DF09013
:0C07B1001336742FF090133774F8F0909A
:0C07BD001338742DF09013397462F09022
:0C07C900133A74B4F090133B741EF090CF
:0C07D500133C74A5F090133D74ECF09000
:0C07E100133E74E9F090133F74DEF090BA
:0C07ED001340740BF090134174E9F0907D
:0C07F9001342747AF09013437472F09075
:0C080500134474AEF090134574A4F090FE
:0C08110013467456F090134774AFF0903B
:0C081D00134874E3F090134974AFF0909E
:0C082900134A7472F090134B7454F0905A
:0C083500134C7405F090134D74BEF0904D
:0C084100134E7414F090134F74A1F0904B
:0C084D0013507401F0901351744DF090A2
:0C0859001352740DF0901353748DF09046
:0C08650013547402F0901355747FF0904F
:0C087100135674CAF090135774EFF09007
:0C087D00135874ECF09013597483F09041
:0C088900135A74E2F090135B74A0F0901E
:0C089500135C7475F090135D740AF09011
:0C08A100135E74EFF090135F740CF09085
:0C08AD001360742CF09013617461F090E3
:0C08B900136274C2F0901363745CF09042
:0C08C500136474DCF09013657495F090DF
:0C08D100136674C3F09013677436F09047
:0C08DD0013687463F09013697469F09064
:0C08E900136A746AF090136B7476F09040
:0C08F500136C7464F090136D74D2F090DA
:0C090100136E7457F090136F7456F09052
:0C090D001370747FF090137174E3F0908D
:0C091900137274C9F090137374CAF0904C
:0C09250013747411F0901375741FF0909F
:0C093100137674FDF090137774FCF090C6
:0C093D001378741AF09013797454F09041
:0C094900137A74A0F090137B7470F0908F
:0C095500137C7442F090137D7497F090B6
:0C096100137E74F7F090137F746DF0901B
:0C096D0014007495F0901401740CF090CC
:0C0979001402749EF09014037479F09046
:0C098500140474ECF090140574D3F0908E
:0C0991001406740AF090140774E4F0904F
:0C099D0014087435F0901409746BF0908D
:0C09A900140A7460F090140B74EDF090D0
:0C09B500140C7425F090140D7425F090C3
:0C09C100140E7433F090140F74D9F090F1
:0C09CD0014107426F0901411748CF0903B
:0C09D900141274D1F09014137499F09073
:0C09E500141474EEF0901415749CF09043
:0C09F10014167411F0901417748DF0901F
:0C09FD00141874BCF090141974BFF09032
:0C0A0900141A7468F090141B74AAF0908A
:0C0A1500141C74B3F090141D74F9F090E0
:0C0A2100141E74DFF090141F74DCF090C1
:0C0A2D0014207480F090142174B8F09034
:0C0A390014227428F09014237460F090D4
:0C0A45001424742BF09014257421F09000
:0C0A510014267403F09014277489F090B0
:0C0A5D00142874EFF0901429742CF09011
:0C0A6900142A74E6F090142B7493F090A3
:0C0A7500142C746FF090142D74BBF090E2
:0C0A8100142E74A7F090142F7456F090FF
:0C0A8D0014307428F090143174B5F0900F
:0C0A990014327499F090143374D7F0906C
:0C0AA50014347469F090143574DBF09088
:0C0AB1001436746BF09014377409F09048
:0C0ABD00143874F7F0901439740BF090AA
:0C0AC900143A7484F090143B74E5F09033
:0C0AD500143C74B2F090143D74F8F090E2
:0C0AE100143E7479F090143F74C4F0903F
:0C0AED00144074D5F0901441747BF0901C
:0C0AF90014427406F09014437445F09011
:0C0B0500144474B5F09014457422F09074
:0C0B1100144674C2F09014477428F09051
:0C0B1D00144874F8F0901449747AF090B9
:0C0B2900144A7439F090144B7498F0904A
:0C0B3500144C74E7F090144D74A4F09080
:0C0B4100144E7454F090144F7445F09062
:0C0B4D00145074A2F0901451740DF0903C
:0C0B5900145274CAF090145374B1F09060
:0C0B65001454743BF0901455749EF090F2
:0C0B710014567459F090145774F9F09069
:0C0B7D00145874FBF090145974AAF09006
:0C0B8900145A7430F090145B7497F090D4
:0C0B9500145C746DF090145D749BF09083
:0C0BA100145E7424F090145F746FF090E8
:0C0BAD0014607474F09014617430F090C7
:0C0BB900146274A7F090146374AFF09005
:0C0BC500146474FFF09014657484F090C8
:0C0BD1001466742CF09014677449F090C6
:0C0BDD001468741BF09014697430F090E0
:0C0BE900146A749FF090146B74B5F090C7
:0C0BF500146C7496F090146D743DF09038
:0C0C0100146E748FF090146F74C2F090A9
:0C0C0D00147074F0F0901471743BF090BF
:0C0C1900147274FCF090147374D4F0900A
:0C0C2500147474B2F09014757478F090A0
:0C0C310014767405F090147774D3F090E2
:0C0C3D00147874CBF09014797480F0905F
:0C0C4900147A7488F090147B7485F0908D
:0C0C5500147C7495F090147D747AF0907B
:0C0C6100147E74B7F090147F7464F0905F
:0C0C6D00150074E4F090150174C4F090C0
:0C0C790015027431F09015037431F090F6
:0C0C850015047408F09015057464F090DC
:0C0C91001506741BF090150774C5F09058
:0C0C9D0015087440F09015097421F090C7
:0C0CA900150A74D5F090150B743FF09004
:0C0CB500150C7482F090150D7498F090EE
:0C0CC100150E74B5F090150F748BF090B8
:0C0CCD001510740CF090151174DAF09002
:0C0CD900151274DEF0901513740AF090F0
:0C0CE50015147473F090151574D6F0907F
:0C0CF10015167475F09015177480F090C3
:0C0CFD0015187481F0901519747BF090AC
:0C0D0900151A74AFF090151B7490F09058
:0C0D1500151C7451F090151D74A2F09094
:0C0D2100151E7422F090151F74DFF09076
:0C0D2D0015207460F090152174ADF0905A
:0C0D39001522741AF0901523745AF090E3
:0C0D450015247469F0901525744EF09090
:0C0D510015267487F090152774F5F090BB
:0C0D5D0015287482F09015297419F0908C
:0C0D6900152A74C7F090152B74DDF09073
:0C0D7500152C74AFF090152D74EBF0906D
:0C0D8100152E747AF090152F743EF0903F
:0C0D8D00153074F3F090153174DAF0901A
:0C0D9900153274B1F090153374E1F09045
:0C0DA500153474EDF090153574D2F09008
:0C0DB1001536742EF09015377426F09063
:0C0DBD001538747DF090153974D5F09055
:0C0DC900153A74B7F090153B74C3F0901D
:0C0DD500153C7413F090153D7409F0906B
:0C0DE100153E74D5F090153F7411F09091
:0C0DED00154074DEF0901541749EF090EB
:0C0DF90015427412F0901543746AF090DB
:0C0E050015447451F090154574F5F09000
:0C0E110015467483F0901547741BF09098
:0C0E1D00154874DEF090154974ABF0909D
:0C0E2900154A746DF090154B74D7F090D2
:0C0E3500154C74ADF090154D7432F09027
:0C0E4100154E7407F090154F746CF09083
:0C0E4D0015507495F0901551742AF09027
:0C0E590015527456F090155374FFF09081
:0C0E6500155474D7F090155574E7F09008
:0B0E71001556E4F09015577485F090C2
:0C0E7C00155874BEF090155974B4F09035
:0C0E8800155A743EF090155B74EFF0906A
:0C0E9400155C7473F090155D7488F0908C
:0C0EA000155E7475F090155F74D9F09029
:0C0EAC001560745CF0901561746AF090A1
:0C0EB800156274B1F09015637458F0904E
:0C0EC4001564744AF090156574BCF09041
:0C0ED00015667480F09015677453F09064
:0C0EDC0015687463F09015697448F0907C
:0C0EE800156A74FDF090156B74A0F0907A
:0C0EF400156C74FCF090156D74ADF0905E
:0C0F0000156E74D9F090156F7434F090E9
:0C0F0C00157074FBF090157174D3F09018
:0C0F1800157274A9F090157374E8F09045
:0C0F240015747418F09015757432F0907C
:0C0F300015767433F09015777478F0900B
:0C0F3C00157874B0F09015797408F090EE
:0C0F4800157A74E4F090157B747BF09037
:0C0F5400157C7459F090157D74F2F0903B
:0B0F6000157E7445F090157F748AF038
:030F6B000200037E
:05000300120F6E80FEEB
:040F6E00750900758C
:030F72000A1275EB
:060F75000B007508117568
:060F7B000C10750D147549
:090F81000E15758220120FB11249
:040F8A00115A75097A
:030F8E0000750AE1
:050F910013750B007553
:060F96000820750C107527
:090F9C000D14750E157582211269
:060FA5000FB112115A12F7
:060FAB0012139000002269
:0A0FB10085820F9000007401F085A6
:060FBB000C821211618599
:060FC100088212117D857B
:060FC7000E821211A712B8
:0A0FCD0012097582011211EDE4F51E
:040FD70011F512F509
:010FDB001005
:090FDC0074802510500302107806
:0C0FE500AE107F00747FC39EFEE49FFFEF
:090FF100EE2509FEEF350AFFA808
:0C0FFA000B8E828F8388F0121217606D3E
:021006007E006A
:03100800BE08001F
:0C100B005066AF107800747FC39FF9E4BA
:0A10170098FAE92509F9EA350AFA0A
:0C102100AB0B89828A838BF0121217F946
:0E102D008E027B007407C39AFCE49BFD8CF0DE
:05103B0005F0E9800250
:02104000C313D8
:0E104200D5F0FB30E028747FC39FFFE498C414
:0E1050000354F8CFC403CF6FCF54F8CF6FF81E
:0C105E007407C39AFAE49BFBEA2FF5111B
:06106A00EB38F5128008CE
:031070000E80955A
:051073000510020FDC76
:07107800850D821211D1AABF
:0A107F0011E512C423CAC423541F54
:0C1089006ACA541FCA6ACAFBEA2509FAA9
:0A109500EB350AFBAC0B8A828B835B
:0C109F008CF0121217FA74075511FB7C3C
:0810AB00008BF005F0EA800261
:0210B300C31365
:0D10B500D5F0FB30E00C75820112117D12A8
:0510C20011C312120928
:0410C7007A017B002F
:0A10CB00C3E5119AE5129B406DC0C9
:0A10D50002C0031211991211C31298
:0C10DF001209D003D002E511C39AFCE511
:0C10EB00129B8C06C423CEC423541F6E3D
:0C10F700CE541FCE6ECEFFEE2509FEEF9A
:0A110300350AFFA80B8E828F838847
:0E110D00F0121217FE5304077D008CF005F05F
:03111B00EE800261
:02111E00C313F9
:0E112000D5F0FB30E014758201C002C003124E
:06112E00117D1211C31235
:061134001209D003D002F5
:07113A000ABA008D0B808A48
:0A11410075820012117D1211C31215
:06114B001209850F82026B
:0211510011ED9E
:071153007580017580002288
:07115A007580027580002280
:02116100AA8260
:071163007402B5A00280F93F
:0B116A0075A0008A9075801075800051
:08117500E5A060FC75800F226B
:02117D00AA8244
:07117F007402B5A00280F923
:0B11860075A0008A9075801175800034
:08119100E5A060FC75800F224F
:071199007402B5A00280F909
:0711A000758012758000222A
:0211A700AA821A
:0711A9007402B5A00280F9F9
:0B11B00075A0008A9075801375800008
:0811BB00E5A060FC75800F2225
:0711C3007402B5A00280F9DF
:0711CA0075801475800022FE
:0211D100AA82F0
:0711D3007402B5A00280F9CF
:0B11DA0075A0008A90758015758000DC
:0811E500E5A060FC75800F22FB
:0211ED00AA82D4
:0711EF007402B5A00280F9B3
:0B11F60075A0008A90758016758000BF
:08120100E5A060FC75800F22DE
:0A12090075A000758020758000229A
:0412130075B055223B
:06003700E478FFF6D8FD9D
:080015007900E94400601B7A48
:05001D0000901237788D
:030022000075A0C6
:0A00250000E493F2A308B8000205FE
:08002F00A0D9F4DAF275A0FF7C
:08003D007800E84400600A7934
:030045000075A0A3
:0600480000E4F309D8FCFE
:08004E007800E84400600C7921
:0B00560000900000E4F0A3D8FCD9FAF1
:03000800758112ED
:0A000B00121233E5826003020003C5
:0E12170020F71430F6148883A88220F507E62D
:06122500A883758300227E
:03122B00E280F767
:03122E00E4932224
:02123100E022B9
:04123300758200229E
:00000001FF
