:03000000020008F3
:0D006100901000746BF090100174F3F0909B
:0C006E0010027461F09010037486F09092
:0C007A0010047413F0901005742CF0902A
:0C008600100674F5F0901007741BF09049
:0C009200100874CAF09010097494F090EB
:0C009E00100A749FF090100B7412F09088
:0C00AA00100C74DAF090100D74DAF09075
:0C00B600100E74CCF090100F7426F09027
:0C00C200101074D9F09010117473F090BD
:0C00CE001012742EF09010137466F09065
:0C00DA0010147411F09010157463F09075
:0C00E600101674EEF09010177472F09079
:0C00F20010187443F09010197440F09046
:0C00FE00101A7497F090101B7455F090CD
:0C010A00101C744CF090101D7406F09056
:0C011600101E7420F090101F7423F09055
:0C0122001020747FF09010217447F090C2
:0C012E00102274D7F0901023749FF09002
:0C013A00102474D4F090102574DEF090B6
:0C014600102674FCF09010277476F090E6
:0C01520010287410F090102974D3F09065
:0C015E00102A7419F090102B746CF090B3
:0C016A00102C7490F090102D7444F09054
:0C017600102E7458F090102F74A9F09017
:0C018200103074D7F0901031744AF090E7
:0C018E0010327466F09010337428F0906A
:0C019A0010347496F09010357424F0902E
:0C01A60010367494F090103774F6F0904E
:0C01B20010387408F090103974F4F090CC
:0C01BE00103A747BF090103B741AF09023
:0C01CA00103C744DF090103D7407F09054
:0C01D600103E7486F090103F743BF090D7
:0C01E2001040742AF09010417484F090DA
:0C01EE00104274F9F090104374BAF090C5
:0C01FA001044744AF090104574DDF09041
:0C0206001046743DF090104774D7F09043
:0C02120010487407F09010497485F090BB
:0C021E00104A74C6F090104B7467F0900A
:0C022A00104C7418F090104D745BF090B4
:0C023600104E74ABF090104F74BAF090B2
:0C0242001050745DF090105174F2F090B8
:0C024E0010527435F0901053744EF09074
:0C025A00105474C4F09010557461F090C2
:0C026600105674A6F09010577406F0902B
:0C02720010587404F09010597455F0906E
:0C027E00105A74CFF090105B7468F09080
:0C028A00105C7492F090105D7464F090B1
:0C029600105E74DBF090105F7490F0902C
:0C02A2001060748BF090106174CFF0902D
:0C02AE0010627458F09010637450F090CF
:0B02BA001064E4F0901065747BF0907D
:0C02C500106674D3F090106774B6F090CF
:0C02D100106874E4F090106974CFF09095
:0C02DD00106A7460F090106B744AF0908E
:0C02E900106C7469F090106D74C2F090FD
:0C02F500106E7470F090106F743DF0906B
:0C0301001070740FF090107174C4F09034
:0C030D0010727403F0901073742BF090C9
:0C0319001074744DF09010757487F09013
:0C032500107674FAF0901077742CF090B1
:0C03310010787434F0901079747FF09014
:0C033D00107A7477F090107B747AF090C6
:0C034900107C746AF090107D7485F090B8
:0C035500107E7448F090107F749BF090B4
:0C0361001100746BF090110174FEF0901C
:0C036D00110274C7F0901103745AF09054
:0C0379001104744EF090110574FAF0901D
:0C038500110674E5F09011077444F0902C
:0C0391001108746BF090110974FFF090DB
:0C039D00110A74B0F090110B7412F09073
:0C03A900110C747BF090110D74B0F090FA
:0C03B500110E744DF090110F7408F090C0
:0C03C10011107494F09011117476F090FB
:0C03CD001112749AF090111374EBF09070
:0C03D90011147453F090111574BCF090D6
:0C03E500111674F2F0901117746DF09076
:0C03F1001118748CF09011197463F090D6
:0C03FD00111A74A2F090111B7479F0909A
:0C040900111C7440F090111D744DF09017
:0C041500111E74CBF090111F74A0F09029
:0C0421001120741CF090112174C5F090A3
:0C042D0011227423F09011237490F090C1
:0C043900112474F1F09011257461F09012
:0C044500112674F6F0901127743BF09023
:0C04510011287481F090112974F2F090D1
:0C045D00112A74D9F090112B7403F09058
:0C046900112C7499F090112D743EF0904D
:0C047500112E74A6F090112F74A5F090C9
:0C04810011307433F09011317440F09091
:0C048D0011327408F09011337426F090C6
:0C049900113474EDF0901135749EF09059
:0C04A500113674D8F090113774ABF09051
:0C04B100113874C1F090113974AFF09054
:0C04BD00113A7415F090113B748FF09010
:0C04C900113C7401F090113D74DFF090C4
:0C04D500113E74B7F090113F74CAF09013
:0904E1001140E4F0901141F0908B
:0804EA001142F0901143F09063
:0904F2001144E4F0901145F09072
:0804FB001146F0901147F0904A
:090503001148E4F0901149F09058
:08050C00114AF090114BF09030
:09051400114CE4F090114DF0903F
:08051D00114EF090114FF09017
:090525001150E4F0901151F09026
:08052E001152F0901153F090FE
:090536001154E4F0901155F0900D
:08053F001156F0901157F090E5
:090547001158E4F0901159F090F4
:08055000115AF090115BF090CC
:09055800115CE4F090115DF090DB
:08056100115EF090115FF090B3
:090569001160E4F0901161F090C2
:080572001162F0901163F0909A
:09057A001164E4F0901165F090A9
:080583001166F0901167F09081
:09058B001168E4F0901169F09090
:08059400116AF090116BF09068
:09059C00116CE4F090116DF09077
:0805A500116EF090116FF0904F
:0905AD001170E4F0901171F0905E
:0805B6001172F0901173F09036
:0905BE001174E4F0901175F09045
:0805C7001176F0901177F0901D
:0905CF001178E4F0901179F0902C
:0805D800117AF090117BF09004
:0905E000117CE4F090117DF09013
:0805E900117EF090117FF090EB
:0C05F10012007401F0901201741FF090D1
:0C05FD0012027421F09012037478F09048
:0C06090012047477F0901205747AF090DF
:0C06150012067426F0901207746BF0902F
:0C062100120874C5F0901209749AF09051
:0C062D00120A74FEF090120B7471F09031
:0C063900120C7468F090120D74EBF0903D
:0C064500120E749DF090120F74CDF09016
:0C065100121074FEF090121174ADF090C5
:0C065D001212748DF090121374F7F090DC
:0C06690012147433F0901215742EF090EF
:0C06750012167469F09012177423F090B4
:0C0681001218744FF090121974C5F0901C
:0C068D00121A7420F090121B7461F0909F
:0C069900121C7446F090121D7437F09093
:0C06A500121E7447F090121F74A7F09012
:0C06B100122074C8F0901221747DF090AB
:0C06BD00122274D2F09012237475F09099
:0C06C900122474B4F0901225743AF090E2
:0C06D500122674E0F09012277434F090AC
:0C06E1001228745FF09012297440F09011
:0C06ED00122A74E2F090122B74D2F090EC
:0C06F900122C74D8F090122D7439F0907F
:0C070500122E7481F090122F749CF09062
:0C071100123074B5F09012317430F0908A
:0C071D0012327494F090123374BCF0900F
:0C07290012347426F09012357422F09007
:0C073500123674CAF090123774AFF090C6
:0C074100123874F2F090123974A5F09098
:0C074D00123A74FCF090123B74FEF09025
:0C075900123C743AF090123D74EFF090E6
:0C076500123E7418F090123F74C4F09023
:090771001240E4F0901241F090F6
:08077A001242F0901243F090CE
:090782001244E4F0901245F090DD
:08078B001246F0901247F090B5
:090793001248E4F0901249F090C4
:08079C00124AF090124BF0909C
:0907A400124CE4F090124DF090AB
:0807AD00124EF090124FF09083
:0907B5001250E4F0901251F09092
:0807BE001252F0901253F0906A
:0907C6001254E4F0901255F09079
:0807CF001256F0901257F09051
:0907D7001258E4F0901259F09060
:0807E000125AF090125BF09038
:0907E800125CE4F090125DF09047
:0807F100125EF090125FF0901F
:0907F9001260E4F0901261F0902E
:080802001262F0901263F09005
:09080A001264E4F0901265F09014
:080813001266F0901267F090EC
:09081B001268E4F0901269F090FB
:08082400126AF090126BF090D3
:09082C00126CE4F090126DF090E2
:08083500126EF090126FF090BA
:09083D001270E4F0901271F090C9
:080846001272F0901273F090A1
:09084E001274E4F0901275F090B0
:080857001276F0901277F09088
:09085F001278E4F0901279F09097
:08086800127AF090127BF0906F
:09087000127CE4F090127DF0907E
:08087900127EF090127FF09056
:0C088100130074E0F090130174FAF09082
:0C088D001302747DF090130374F4F090DB
:0C0899001304749EF090130574FFF0909F
:0C08A50013067431F0901307748AF09071
:0C08B1001308744AF09013097417F090BB
:0C08BD00130A747AF090130B74E9F090A9
:0C08C900130C7437F090130D7486F0903F
:0C08D500130E7415F090130F7427F090B0
:0C08E1001310742BF09013117429F09088
:0C08ED0013127406F09013137453F09073
:0C08F900131474E1F09013157408F090D3
:0C090500131674D2F09013177411F090C8
:0C091100131874C6F090131974EFF090E6
:0C091D00131A7443F090131B74B6F09092
:0C092900131C74C8F090131D7493F09020
:0C093500131E744FF090131F7427F090F5
:0C094100132074D1F09013217462F09028
:0C094D00132274CFF09013237412F0906A
:0C095900132474C3F090132574E6F09092
:0C096500132674A4F09013277432F09055
:0C09710013287485F090132974A6F090F0
:0C097D00132A744FF090132B7426F09096
:0C098900132C7412F090132D7466F09083
:0C099500132E7487F090132F745AF0900A
:0C09A1001330748FF090133174AEF0909E
:0C09AD0013327457F090133374E2F09092
:0C09B9001334747CF0901335748EF090B1
:0C09C500133674FBF090133774A6F0900A
:0C09D100133874E3F0901339746AF0904E
:0C09DD00133A7484F090133B74F7F09010
:0C09E900133C7492F090133D745DF0908C
:0C09F500133E7466F090133F7409F090FC
:0C0A010013407417F090134174FCF09047
:0C0A0D001342744AF09013437498F09068
:0C0A19001344741EF090134574DAF09042
:0C0A2500134674B7F090134774A1F090D2
:0C0A310013487494F090134974E8F0909E
:0C0A3D00134A7459F090134B74AEF09003
:0C0A4900134C743AF090134D74A3F0901D
:0C0A5500134E7480F090134F7413F09057
:0C0A610013507413F09013517481F09046
:0C0A6D001352740AF0901353741CF090A4
:0C0A79001354746FF0901355740CF0903F
:0C0A850013567416F09013577467F0902D
:0C0A910013587448F0901359742AF09028
:0C0A9D00135A741FF090135B7440F0902B
:0C0AA900135C748FF090135D7497F09054
:0C0AB500135E74BBF090135F7455F0905A
:0C0AC10013607452F09013617435F090D3
:0C0ACD0013627488F09013637465F0905D
:0C0AD900136474D8F09013657401F09061
:0C0AE5001366748FF09013677477F09024
:0C0AF10013687486F090136974A5F090EF
:0C0AFD00136A7455F090136B7466F0904F
:0C0B0900136C7453F090136D7402F090A4
:0C0B1500136E74F3F090136F7441F090B5
:0C0B2100137074F4F09013717426F090BF
:0C0B2D00137274CCF090137374D7F09026
:0C0B39001374740AF090137574EAF090C5
:0C0B4500137674E4F0901377743CF09089
:0C0B5100137874A1F09013797465F09093
:0C0B5D00137A74BAF090137B748DF09042
:0C0B6900137C7471F090137D7408F09000
:0C0B7500137E74EEF090137F7498F090E3
:0C0B810014007401F09014017401F09055
:0C0B8D0015007401F09015017423F09025
:0C0B9900150274C5F090150374D2F090A2
:0C0BA5001504746AF090150574E6F090D9
:0C0BB1001506748BF0901507742BF09063
:0C0BBD00150874E7F09015097441F090E1
:0C0BC900150A745AF090150B748EF09011
:0C0BD500150C74BAF090150D7408F09027
:0C0BE100150E741AF090150F7466F09059
:0C0BED0015107497F090151174C4F0906E
:0C0BF900151274B7F0901513746EF09094
:0C0C050015147454F0901515745DF090F7
:0C0C1100151674C4F09015177499F0903B
:0C0C1D0015187440F09015197463F090E5
:0C0C2900151A7465F090151B74EDF09026
:0C0C3500151C7477F090151D74CAF09027
:0C0C4100151E74CFF090151F74EBF0909E
:0C0C4D0015207475F090152174CFF09004
:0C0C590015227429F0901523743CF090D3
:0C0C6500152474E5F09015257427F0901C
:0C0C71001526740BF09015277454F090B9
:0C0C7D00152874D0F09015297411F09027
:0C0C8900152A747EF090152B74B2F090C8
:0C0C9500152C740BF090152D7412F090CB
:0C0CA100152E749FF090152F74BDF0907C
:0C0CAD00153074BFF0901531742FF090DA
:0C0CB90015327451F0901533744CF0901B
:0C0CC50015347451F0901535746DF090EA
:0C0CD1001536742FF090153774F8F09071
:0C0CDD001538742DF09015397462F090F9
:0C0CE900153A74B4F090153B741EF090A6
:0C0CF500153C74A5F090153D74ECF090D7
:0C0D0100153E74E9F090153F74DEF09090
:0C0D0D001540740BF090154174E9F09053
:0C0D19001542747AF09015437472F0904B
:0C0D2500154474AEF090154574A4F090D5
:0C0D310015467456F090154774AFF09012
:0C0D3D00154874E3F090154974AFF09075
:0C0D4900154A7472F090154B7454F09031
:0C0D5500154C7405F090154D74BEF09024
:0C0D6100154E7414F090154F74A1F09022
:0C0D6D0015507401F0901551744DF09079
:0C0D79001552740DF0901553748DF0901D
:0C0D850015547402F0901555747FF09026
:0C0D9100155674CAF090155774EFF090DE
:0C0D9D00155874ECF09015597483F09018
:0C0DA900155A74E2F090155B74A0F090F5
:0C0DB500155C7475F090155D740AF090E8
:0C0DC100155E74EFF090155F740CF0905C
:0C0DCD001560742CF09015617461F090BA
:0C0DD900156274C2F0901563745CF09019
:0C0DE500156474DCF09015657495F090B6
:0C0DF100156674C3F09015677436F0901E
:0C0DFD0015687463F09015697469F0903B
:0C0E0900156A746AF090156B7476F09016
:0C0E1500156C7464F090156D74D2F090B0
:0C0E2100156E7457F090156F7456F09029
:0C0E2D001570747FF090157174E3F09064
:0C0E3900157274C9F090157374CAF09023
:0C0E450015747411F0901575741FF09076
:0C0E5100157674FDF090157774FCF0909D
:0C0E5D001578741AF09015797454F09018
:0C0E6900157A74A0F090157B7470F09066
:0C0E7500157C7442F090157D7497F0908D
:0C0E8100157E74F7F090157F746DF090F2
:0C0E8D001600742CF09016017467F090B1
:0C0E990016027447F09016037448F090A5
:0C0EA5001604741DF090160574C5F09042
:0C0EB100160674D9F0901607740CF0902F
:0C0EBD0016087453F09016097427F0908A
:0C0EC900160A74DEF090160B74ECF0902A
:0C0ED500160C74A5F090160D74E8F09057
:0C0EE100160E74E3F090160F7491F09060
:0C0EED001610746DF0901611741BF0903C
:0C0EF900161274ABF09016137401F09008
:0C0F050016147464F090161574CFF09070
:0C0F110016167445F09016177482F090CC
:0C0F1D00161874A8F090161974C7F09014
:0C0F2900161A741DF090161B742AF0902C
:0C0F3500161C74C3F090161D74A4F090FC
:0C0F4100161E7402F090161F7474F090DD
:0C0F4D0016207444F090162174D3F0902C
:0C0F59001622744FF09016237430F090B4
:0C0F6500162474D7F09016257427F09025
:0C0F710016267434F090162774ABF09034
:0C0F7D0016287470F0901629746FF09024
:0C0F8900162A7460F090162B7415F0907E
:0C0F9500162C7464F090162D74D9F090A6
:0C0FA100162E7482F090162F7450F09001
:0C0FAD0016307416F09016317498F09015
:0C0FB900163274D1F09016337459F09089
:0C0FC500163474B6F09016357412F090DB
:0C0FD1001636748CF090163774D8F0902F
:0C0FDD0016387427F090163974C0F0909C
:0C0FE900163A74BBF090163B74D1F090E7
:0C0FF500163C7494F090163D74C6F09009
:0C100100163E746BF090163F74B5F09032
:09100D001640E4F0901641F09049
:081016001642F0901643F09021
:09101E001644E4F0901645F09030
:081027001646F0901647F09008
:09102F001648E4F0901649F09017
:08103800164AF090164BF090EF
:09104000164CE4F090164DF090FE
:08104900164EF090164FF090D6
:091051001650E4F0901651F090E5
:08105A001652F0901653F090BD
:091062001654E4F0901655F090CC
:08106B001656F0901657F090A4
:091073001658E4F0901659F090B3
:08107C00165AF090165BF0908B
:09108400165CE4F090165DF0909A
:08108D00165EF090165FF09072
:091095001660E4F0901661F09081
:08109E001662F0901663F09059
:0910A6001664E4F0901665F09068
:0810AF001666F0901667F09040
:0910B7001668E4F0901669F0904F
:0810C000166AF090166BF09027
:0910C800166CE4F090166DF09036
:0810D100166EF090166FF0900E
:0910D9001670E4F0901671F0901D
:0810E2001672F0901673F090F5
:0910EA001674E4F0901675F09004
:0810F3001676F0901677F090DC
:0910FB001678E4F0901679F090EB
:08110400167AF090167BF090C2
:09110C00167CE4F090167DF090D1
:08111500167EF090167FF090A9
:0C111D0017007430F090170174F3F0908C
:0C112900170274DFF09017037420F090A0
:0C113500170474FDF090170574BEF090D4
:0C1141001706746EF09017077465F090AC
:0C114D00170874C8F0901709749BF0900C
:0C115900170A749AF090170B74E2F090E3
:0C116500170C74E2F090170D745EF0900F
:0C117100170E74EBF090170F74F2F09062
:0C117D001710744DF0901711744CF09096
:0C11890017127425F0901713741DF090DD
:0C11950017147418F0901715742DF090CA
:0C11A100171674BFF090171774CCF09074
:0C11AD0017187441F09017197466F09048
:0C11B900171A741AF090171B7469F0905C
:0C11C500171C7457F090171D744CF0902C
:0C11D100171E74A0F090171F74D7F09048
:0C11DD0017207440F0901721742AF09045
:0C11E900172274F5F09017237451F09059
:0C11F5001724745DF090172574BBF09077
:0C12010017267478F090172774ACF0905A
:0C120D00172874F1F090172974D1F090AC
:0C121900172A744CF090172B7427F090EB
:0C122500172C7446F090172D7465F090A3
:0C123100172E743BF090172F74C4F0903F
:0C123D00173074A7F09017317461F09026
:0C12490017327427F09017337434F090C3
:0C12550017347447F09017357442F09085
:0C126100173674A4F09017377414F09046
:0C126D00173874ADF09017397484F090BD
:0B127900173A740AF090173BE4F09065
:0C128400173C7468F090173D74E3F09084
:0C129000173E743FF090173F7428F09058
:09129C001740E4F0901741F090B6
:0812A5001742F0901743F0908E
:0912AD001744E4F0901745F0909D
:0812B6001746F0901747F09075
:0912BE001748E4F0901749F09084
:0812C700174AF090174BF0905C
:0912CF00174CE4F090174DF0906B
:0812D800174EF090174FF09043
:0912E0001750E4F0901751F09052
:0812E9001752F0901753F0902A
:0912F1001754E4F0901755F09039
:0812FA001756F0901757F09011
:091302001758E4F0901759F0901F
:08130B00175AF090175BF090F7
:09131300175CE4F090175DF09006
:08131C00175EF090175FF090DE
:091324001760E4F0901761F090ED
:08132D001762F0901763F090C5
:091335001764E4F0901765F090D4
:08133E001766F0901767F090AC
:091346001768E4F0901769F090BB
:08134F00176AF090176BF09093
:09135700176CE4F090176DF090A2
:08136000176EF090176FF0907A
:091368001770E4F0901771F09089
:081371001772F0901773F09061
:091379001774E4F0901775F09070
:081382001776F0901777F09048
:09138A001778E4F0901779F09057
:08139300177AF090177BF0902F
:09139B00177CE4F090177DF0903E
:0813A400177EF090177FF09016
:0C13AC001800746CF09018017433F0907D
:0C13B800180274E4F09018037485F090A3
:0C13C4001804748EF0901805749CF090D2
:0C13D0001806747DF0901807748BF090E4
:0C13DC00180874E4F0901809743AF090BE
:0C13E800180A7469F090180B749AF090C9
:0C13F400180C744BF090180D741BF09056
:0C140000180E74B7F090180F7475F0907F
:0C140C001810748DF090181174BBF09053
:0C14180018127468F09018137442F090E1
:0C14240018147431F09018157491F090B9
:0C143000181674C6F090181774B9F090EC
:0C143C001818748BF09018197478F09058
:0C144800181A743AF090181B7414F090FD
:0C145400181C7492F090181D742BF0907E
:0C146000181E7469F090181F740AF090B8
:0C146C00182074E4F0901821742AF0900D
:0C14780018227455F0901823749CF0901A
:0C14840018247444F09018257411F090A6
:0C14900018267447F0901827742BF09079
:0C149C00182874E6F09018297494F09061
:0C14A800182A74B2F090182B74CBF0904E
:0C14B400182C74EFF090182D7485F09047
:0C14C000182E74DCF090182F7415F090BA
:0C14CC0018307442F09018317475F090E4
:0C14D80018327404F09018337468F0901F
:0C14E40018347475F090183574E3F09023
:0C14F00018367483F090183774AFF09039
:0C14FC001838741EF09018397436F09007
:0C150800183A749AF090183B742CF09084
:0C151400183C743FF090183D74D6F09025
:0C152000183E74BCF090183F742BF09043
:09152C001840E4F0901841F09021
:081535001842F0901843F090F9
:09153D001844E4F0901845F09008
:081546001846F0901847F090E0
:09154E001848E4F0901849F090EF
:08155700184AF090184BF090C7
:09155F00184CE4F090184DF090D6
:08156800184EF090184FF090AE
:091570001850E4F0901851F090BD
:081579001852F0901853F09095
:091581001854E4F0901855F090A4
:08158A001856F0901857F0907C
:091592001858E4F0901859F0908B
:08159B00185AF090185BF09063
:0915A300185CE4F090185DF09072
:0815AC00185EF090185FF0904A
:0915B4001860E4F0901861F09059
:0815BD001862F0901863F09031
:0915C5001864E4F0901865F09040
:0815CE001866F0901867F09018
:0915D6001868E4F0901869F09027
:0815DF00186AF090186BF090FF
:0915E700186CE4F090186DF0900E
:0815F000186EF090186FF090E6
:0915F8001870E4F0901871F090F5
:081601001872F0901873F090CC
:091609001874E4F0901875F090DB
:081612001876F0901877F090B3
:09161A001878E4F0901879F090C2
:08162300187AF090187BF0909A
:09162B00187CE4F090187DF090A9
:08163400187EF090187FF09081
:0C163C0019007495F0901901740CF090E6
:0C1648001902749EF09019037479F09060
:0C165400190474ECF090190574D3F090A8
:0C1660001906740AF090190774E4F09069
:0C166C0019087435F0901909746BF090A7
:0C167800190A7460F090190B74EDF090EA
:0C168400190C7425F090190D7425F090DD
:0C169000190E7433F090190F74D9F0900B
:0C169C0019107426F0901911748CF09055
:0C16A800191274D1F09019137499F0908D
:0C16B400191474EEF0901915749CF0905D
:0C16C00019167411F0901917748DF09039
:0C16CC00191874BCF090191974BFF0904C
:0C16D800191A7468F090191B74AAF090A5
:0C16E400191C74B3F090191D74F9F090FB
:0C16F000191E74DFF090191F74DCF090DC
:0C16FC0019207480F090192174B8F0904F
:0C17080019227428F09019237460F090EE
:0C1714001924742BF09019257421F0901A
:0C17200019267403F09019277489F090CA
:0C172C00192874EFF0901929742CF0902B
:0C173800192A74E6F090192B7493F090BD
:0C174400192C746FF090192D74BBF090FC
:0C175000192E74A7F090192F7456F09019
:0C175C0019307428F090193174B5F09029
:0C17680019327499F090193374D7F09086
:0C17740019347469F090193574DBF090A2
:0C1780001936746BF09019377409F09062
:0C178C00193874F7F0901939740BF090C4
:0C179800193A7484F090193B74E5F0904D
:0C17A400193C74B2F090193D74F8F090FC
:0C17B000193E7479F090193F74C4F09059
:0C17BC00194074D5F0901941747BF09036
:0C17C80019427406F09019437445F0902B
:0C17D400194474B5F09019457422F0908F
:0C17E000194674C2F09019477428F0906C
:0C17EC00194874F8F0901949747AF090D4
:0C17F800194A7439F090194B7498F09065
:0C180400194C74E7F090194D74A4F0909A
:0C181000194E7454F090194F7445F0907C
:0C181C00195074A2F0901951740DF09056
:0C182800195274CAF090195374B1F0907A
:0C1834001954743BF0901955749EF0900C
:0C18400019567459F090195774F9F09083
:0C184C00195874FBF090195974AAF09020
:0C185800195A7430F090195B7497F090EE
:0C186400195C746DF090195D749BF0909D
:0C187000195E7424F090195F746FF09002
:0C187C0019607474F09019617430F090E1
:0C188800196274A7F090196374AFF0901F
:0C189400196474FFF09019657484F090E2
:0C18A0001966742CF09019677449F090E0
:0C18AC001968741BF09019697430F090FA
:0C18B800196A749FF090196B74B5F090E1
:0C18C400196C7496F090196D743DF09052
:0C18D000196E748FF090196F74C2F090C4
:0C18DC00197074F0F0901971743BF090DA
:0C18E800197274FCF090197374D4F09025
:0C18F400197474B2F09019757478F090BB
:0C19000019767405F090197774D3F090FC
:0C190C00197874CBF09019797480F09079
:0C191800197A7488F090197B7485F090A7
:0C192400197C7495F090197D747AF09095
:0C193000197E74B7F090197F7464F09079
:0C193C001A0074E4F0901A0174C4F090DA
:0C1948001A027431F0901A037431F09010
:0C1954001A047408F0901A057464F090F6
:0C1960001A06741BF0901A0774C5F09072
:0C196C001A087440F0901A097421F090E1
:0C1978001A0A74D5F0901A0B743FF0901E
:0C1984001A0C7482F0901A0D7498F09008
:0C1990001A0E74B5F0901A0F748BF090D2
:0C199C001A10740CF0901A1174DAF0901C
:0C19A8001A1274DEF0901A13740AF0900A
:0C19B4001A147473F0901A1574D6F09099
:0C19C0001A167475F0901A177480F090DD
:0C19CC001A187481F0901A19747BF090C6
:0C19D8001A1A74AFF0901A1B7490F09073
:0C19E4001A1C7451F0901A1D74A2F090AF
:0C19F0001A1E7422F0901A1F74DFF09091
:0C19FC001A207460F0901A2174ADF09075
:0C1A08001A22741AF0901A23745AF090FD
:0C1A14001A247469F0901A25744EF090AA
:0C1A20001A267487F0901A2774F5F090D5
:0C1A2C001A287482F0901A297419F090A6
:0C1A38001A2A74C7F0901A2B74DDF0908D
:0C1A44001A2C74AFF0901A2D74EBF09087
:0C1A50001A2E747AF0901A2F743EF09059
:0C1A5C001A3074F3F0901A3174DAF09034
:0C1A68001A3274B1F0901A3374E1F0905F
:0C1A74001A3474EDF0901A3574D2F09022
:0C1A80001A36742EF0901A377426F0907D
:0C1A8C001A38747DF0901A3974D5F0906F
:0C1A98001A3A74B7F0901A3B74C3F09037
:0C1AA4001A3C7413F0901A3D7409F09085
:0C1AB0001A3E74D5F0901A3F7411F090AB
:0C1ABC001A4074DEF0901A41749EF09005
:0C1AC8001A427412F0901A43746AF090F5
:0C1AD4001A447451F0901A4574F5F0901B
:0C1AE0001A467483F0901A47741BF090B3
:0C1AEC001A4874DEF0901A4974ABF090B8
:0C1AF8001A4A746DF0901A4B74D7F090ED
:0C1B04001A4C74ADF0901A4D7432F09041
:0C1B10001A4E7407F0901A4F746CF0909D
:0C1B1C001A507495F0901A51742AF09041
:0C1B28001A527456F0901A5374FFF0909B
:0C1B34001A5474D7F0901A5574E7F09022
:0B1B40001A56E4F0901A577485F090DC
:0C1B4B001A5874BEF0901A5974B4F0904F
:0C1B57001A5A743EF0901A5B74EFF09084
:0C1B63001A5C7473F0901A5D7488F090A6
:0C1B6F001A5E7475F0901A5F74D9F09043
:0C1B7B001A60745CF0901A61746AF090BB
:0C1B87001A6274B1F0901A637458F09068
:0C1B93001A64744AF0901A6574BCF0905B
:0C1B9F001A667480F0901A677453F0907E
:0C1BAB001A687463F0901A697448F09096
:0C1BB7001A6A74FDF0901A6B74A0F09094
:0C1BC3001A6C74FCF0901A6D74ADF09078
:0C1BCF001A6E74D9F0901A6F7434F09004
:0C1BDB001A7074FBF0901A7174D3F09033
:0C1BE7001A7274A9F0901A7374E8F09060
:0C1BF3001A747418F0901A757432F09097
:0C1BFF001A767433F0901A777478F09026
:0C1C0B001A7874B0F0901A797408F09008
:0C1C17001A7A74E4F0901A7B747BF09051
:0C1C23001A7C7459F0901A7D74F2F09055
:0C1C2F001A7E7445F0901A7F748AF090C1
:0C1C3B001B0074F3F0901B01741CF0906F
:0C1C47001B02740FF0901B0374BFF090A0
:0C1C53001B047466F0901B05748CF0906C
:0C1C5F001B067448F0901B0774FAF0900C
:0C1C6B001B087438F0901B0974B7F0904F
:0C1C77001B0A7415F0901B0B74AEF0906B
:0C1C83001B0C7474F0901B0D7430F0907A
:0C1C8F001B0E74B7F0901B0F74A2F090B5
:0C1C9B001B1074BBF0901B1174BFF09084
:0C1CA7001B1274B0F0901B1374E1F0905D
:0C1CB3001B147474F0901B157489F090E1
:0C1CBF001B1674F5F0901B17741DF090BC
:0C1CCB001B18746CF0901B197488F090CA
:0C1CD7001B1A74D4F0901B1B74B3F09027
:0C1CE3001B1C7433F0901B1D7416F09055
:0C1CEF001B1E74BEF0901B1F74BFF09011
:0C1CFB001B20743BF0901B21742FF09014
:0C1D07001B227454F0901B23746CF090AD
:0C1D13001B247457F0901B257484F09082
:0C1D1F001B2674CCF0901B27743AF09047
:0C1D2B001B287461F0901B2974F4F090E8
:0C1D37001B2A7427F0901B2B746BF0909B
:0C1D43001B2C74EBF0901B2D740BF09027
:0C1D4F001B2E7435F0901B2F74C7F09011
:0C1D5B001B307474F0901B317441F09048
:0C1D67001B3274ABF0901B337404F0903E
:0C1D73001B3474ECF0901B357456F0909B
:0C1D7F001B367415F0901B377432F09086
:0C1D8B001B387404F0901B397415F090A4
:0C1D97001B3A7476F0901B3B7407F09030
:0C1DA3001B3C7444F0901B3D74D7F09082
:0C1DAF001B3E7431F0901B3F74C8F09094
:091DBB001B40E4F0901B41F09084
:081DC4001B42F0901B43F0905C
:091DCC001B44E4F0901B45F0906B
:081DD5001B46F0901B47F09043
:091DDD001B48E4F0901B49F09052
:081DE6001B4AF0901B4BF0902A
:091DEE001B4CE4F0901B4DF09039
:081DF7001B4EF0901B4FF09011
:091DFF001B50E4F0901B51F09020
:081E08001B52F0901B53F090F7
:091E10001B54E4F0901B55F09006
:081E19001B56F0901B57F090DE
:091E21001B58E4F0901B59F090ED
:081E2A001B5AF0901B5BF090C5
:091E32001B5CE4F0901B5DF090D4
:081E3B001B5EF0901B5FF090AC
:091E43001B60E4F0901B61F090BB
:081E4C001B62F0901B63F09093
:091E54001B64E4F0901B65F090A2
:081E5D001B66F0901B67F0907A
:091E65001B68E4F0901B69F09089
:081E6E001B6AF0901B6BF09061
:091E76001B6CE4F0901B6DF09070
:081E7F001B6EF0901B6FF09048
:091E87001B70E4F0901B71F09057
:081E90001B72F0901B73F0902F
:091E98001B74E4F0901B75F0903E
:081EA1001B76F0901B77F09016
:091EA9001B78E4F0901B79F09025
:081EB2001B7AF0901B7BF090FD
:091EBA001B7CE4F0901B7DF0900C
:081EC3001B7EF0901B7FF090E4
:0C1ECB001C0074FEF0901C0174A0F0904C
:0C1ED7001C027407F0901C037426F090AD
:0C1EE3001C0474AEF0901C0574CAF09052
:0C1EEF001C06747FF0901C077454F090E7
:0C1EFB001C0874D2F0901C0974ECF090EC
:0C1F07001C0A74B4F0901C0B7477F0906E
:0C1F13001C0C742EF0901C0D74D2F09089
:0C1F1F001C0E74BFF0901C0F74B0F0900A
:0C1F2B001C107409F0901C117497F090C9
:0C1F37001C12749CF0901C137481F0903C
:0C1F43001C147450F0901C1574F6F09003
:0C1F4F001C167475F0901C1774FBF090C9
:0C1F5B001C1874BDF0901C19741BF09051
:0C1F67001C1A743CF0901C1B74E9F090F4
:0C1F73001C1C7403F0901C1D746CF0909A
:0C1F7F001C1E74BBF0901C1F7473F090CB
:0C1F8B001C2074B3F0901C21748AF090AC
:0C1F97001C227404F0901C23749BF0903A
:0C1FA3001C2474E3F0901C257499F0904D
:0C1FAF001C2674C9F0901C277445F090AB
:0C1FBB001C2874BAF0901C297453F0909C
:0C1FC7001C2A749CF0901C2B7475F09088
:0C1FD3001C2C749EF0901C2D7410F090DB
:0C1FDF001C2E7479F0901C2F748CF09074
:0C1FEB001C307421F0901C317482F090C6
:0C1FF7001C3274E9F0901C337406F0906A
:0C2003001C34748EF0901C35741EF0909C
:0C200F001C3674BAF0901C3774DDF090A1
:0C201B001C3874C4F0901C397428F0903C
:0C2027001C3A74EEF0901C3B7480F090AA
:0C2033001C3C74BEF0901C3D7465F090E5
:0C203F001C3E7472F0901C3F742BF0905B
:09204B001C40E4F0901C41F090EF
:082054001C42F0901C43F090C7
:09205C001C44E4F0901C45F090D6
:082065001C46F0901C47F090AE
:09206D001C48E4F0901C49F090BD
:082076001C4AF0901C4BF09095
:09207E001C4CE4F0901C4DF090A4
:082087001C4EF0901C4FF0907C
:09208F001C50E4F0901C51F0908B
:082098001C52F0901C53F09063
:0920A0001C54E4F0901C55F09072
:0820A9001C56F0901C57F0904A
:0920B1001C58E4F0901C59F09059
:0820BA001C5AF0901C5BF09031
:0920C2001C5CE4F0901C5DF09040
:0820CB001C5EF0901C5FF09018
:0920D3001C60E4F0901C61F09027
:0820DC001C62F0901C63F090FF
:0920E4001C64E4F0901C65F0900E
:0820ED001C66F0901C67F090E6
:0920F5001C68E4F0901C69F090F5
:0820FE001C6AF0901C6BF090CD
:092106001C6CE4F0901C6DF090DB
:08210F001C6EF0901C6FF090B3
:092117001C70E4F0901C71F090C2
:082120001C72F0901C73F0909A
:092128001C74E4F0901C75F090A9
:082131001C76F0901C77F09081
:092139001C78E4F0901C79F09090
:082142001C7AF0901C7BF09068
:09214A001C7CE4F0901C7DF09077
:082153001C7EF0901C7FF0904F
:0C215B001D007478F0901D0174A1F0903C
:0C2167001D0274C1F0901D0374CAF090BA
:0C2173001D04744FF0901D057428F090BE
:0C217F001D0674B2F0901D07747AF090F9
:0C218B001D087424F0901D097409F090E8
:0C2197001D0A7419F0901D0B748BF09061
:0C21A3001D0C74EBF0901D0D74A7F09063
:0C21AF001D0E7499F0901D0F7468F090E4
:0C21BB001D10741EF0901D1174FDF090BA
:0C21C7001D127483F0901D137423F0901F
:0C21D3001D1474C6F0901D1574FFF090F0
:0C21DF001D16748DF0901D177426F090F2
:0C21EB001D18743FF0901D1974A9F090AD
:0C21F7001D1A7456F0901D1B74BEF09071
:0C2203001D1C74F6F0901D1D7401F0907D
:0C220F001D1E746DF0901D1F74B5F09042
:0C221B001D2074A9F0901D2174E1F090CA
:0C2227001D227450F0901D237417F090DD
:0C2233001D2474A5F0901D2574C6F090C9
:0C223F001D2674E8F0901D277488F090B4
:0C224B001D2874B0F0901D2974B9F090AB
:0C2257001D2A747CF0901D2B7421F09067
:0C2263001D2C740BF0901D2D741DF090CC
:0C226F001D2E74DDF0901D2F746FF09098
:0C227B001D307436F0901D317412F0908C
:0C2287001D3274ABF0901D33743FF090DA
:0C2293001D34749BF0901D357430F090E9
:0C229F001D36749CF0901D3774AFF09059
:0C22AB001D387497F0901D397475F09088
:0C22B7001D3A7488F0901D3B749EF0905E
:0C22C3001D3C7440F0901D3D74B3F09081
:0C22CF001D3E74F4F0901D3F74BCF090B4
:0922DB001D40E4F0901D41F0905B
:0822E4001D42F0901D43F09033
:0922EC001D44E4F0901D45F09042
:0822F5001D46F0901D47F0901A
:0922FD001D48E4F0901D49F09029
:082306001D4AF0901D4BF09000
:09230E001D4CE4F0901D4DF0900F
:082317001D4EF0901D4FF090E7
:09231F001D50E4F0901D51F090F6
:082328001D52F0901D53F090CE
:092330001D54E4F0901D55F090DD
:082339001D56F0901D57F090B5
:092341001D58E4F0901D59F090C4
:08234A001D5AF0901D5BF0909C
:092352001D5CE4F0901D5DF090AB
:08235B001D5EF0901D5FF09083
:092363001D60E4F0901D61F09092
:08236C001D62F0901D63F0906A
:092374001D64E4F0901D65F09079
:08237D001D66F0901D67F09051
:092385001D68E4F0901D69F09060
:08238E001D6AF0901D6BF09038
:092396001D6CE4F0901D6DF09047
:08239F001D6EF0901D6FF0901F
:0923A7001D70E4F0901D71F0902E
:0823B0001D72F0901D73F09006
:0923B8001D74E4F0901D75F09015
:0823C1001D76F0901D77F090ED
:0923C9001D78E4F0901D79F090FC
:0823D2001D7AF0901D7BF090D4
:0923DA001D7CE4F0901D7DF090E3
:0823E3001D7EF0901D7FF090BB
:0C23EB001E007409F0901E017470F09048
:0C23F7001E02749CF0901E0374A3F09072
:0C2403001E047436F0901E057413F09057
:0C240F001E0674CBF0901E07747AF0904B
:0C241B001E087492F0901E0974FFF090EF
:0C2427001E0A7479F0901E0B7425F090D2
:0C2433001E0C7448F0901E0D7467F090B1
:0C243F001E0E74B6F0901E0F74ABF090EF
:0C244B001E10740CF0901E1174C4F09070
:0C2457001E127422F0901E13740BF09003
:0C2463001E14748CF0901E1574ABF090E9
:0C246F001E167409F0901E177410F090F7
:0C247B001E187477F0901E197466F09023
:0C2487001E1A748CF0901E1B7420F09044
:0C2493001E1C7405F0901E1D7438F090A3
:0C249F001E1E7476F0901E1F7456F09004
:0C24AB001E207416F0901E2174A1F09009
:0C24B7001E227494F0901E2374ACF09070
:0C24C3001E2474C2F0901E257485F09059
:0C24CF001E2674BCF0901E2774CDF09007
:0C24DB001E28741BF0901E2974B1F090B4
:0C24E7001E2A74B0F0901E2B74A3F0901D
:0C24F3001E2C74E6F0901E2D74A6F090D4
:0C24FF001E2E7487F0901E2F74DCF090ED
:0C250B001E3074F0F0901E317498F090B7
:0C2517001E327467F0901E33747EF0904A
:0C2523001E3474D3F0901E3574ADF0909F
:0C252F001E36745AF0901E3774C2F090F3
:0C253B001E387475F0901E397449F09041
:0C2547001E3A74C1F0901E3B74C2F0906C
:0C2553001E3C7447F0901E3D745DF0903B
:0C255F001E3E74C2F0901E3F746FF0909E
:09256B001E40E4F0901E41F090C6
:082574001E42F0901E43F0909E
:09257C001E44E4F0901E45F090AD
:082585001E46F0901E47F09085
:09258D001E48E4F0901E49F09094
:082596001E4AF0901E4BF0906C
:09259E001E4CE4F0901E4DF0907B
:0825A7001E4EF0901E4FF09053
:0925AF001E50E4F0901E51F09062
:0825B8001E52F0901E53F0903A
:0925C0001E54E4F0901E55F09049
:0825C9001E56F0901E57F09021
:0925D1001E58E4F0901E59F09030
:0825DA001E5AF0901E5BF09008
:0925E2001E5CE4F0901E5DF09017
:0825EB001E5EF0901E5FF090EF
:0925F3001E60E4F0901E61F090FE
:0825FC001E62F0901E63F090D6
:092604001E64E4F0901E65F090E4
:08260D001E66F0901E67F090BC
:092615001E68E4F0901E69F090CB
:08261E001E6AF0901E6BF090A3
:092626001E6CE4F0901E6DF090B2
:08262F001E6EF0901E6FF0908A
:092637001E70E4F0901E71F09099
:082640001E72F0901E73F09071
:092648001E74E4F0901E75F09080
:082651001E76F0901E77F09058
:092659001E78E4F0901E79F09067
:082662001E7AF0901E7BF0903F
:09266A001E7CE4F0901E7DF0904E
:072673001E7EF0901E7FF0B7
:03267A0002000358
:0500030012267D80FEC5
:04267D007527007548
:03268100281475A5
:0626840029007526137504
:06268A002A10752B1975E2
:092690002C1A7582201227471252
:04269900296B75270D
:03269D000075289D
:0526A00015752900750D
:0626A5002620752A1075C5
:0926AB002B19752C1A75822112FD
:0626B400274712296B12FA
:0626BA002A389000002206
:0B26C000AA82852182C00212298E121E
:0826CB0029D4122A24D00230A8
:0726D30000058A820229FEC6
:0126DA0022DD
:0B26DB00AA82852282C00212298E1202
:0826E60029D4122A2ED0023083
:0726EE0001058A820229FEAA
:0126F50022C2
:0B26F600AA82852382C00212298E12E6
:0827010029D4122A1AD002307B
:0727090002058A820229FE8D
:0127100022A6
:0B271100AA82852482C00212298E8556
:06271C0025821229B8120B
:0A2722002A1AD0023003058A820251
:02272C0029FE84
:01272E002288
:0B272F00AA82C0021229AA1229D412AB
:0A273A002A1AD0023004058A820238
:0227440029FE6C
:012746002270
:0A27470085822D9000007401F085DA
:062751002A8212297285A4
:03275700262485B0
:03275A002C25D259
:09275D0003758201122711E4F555
:042766002FF530F526
:01276A002E40
:09276B007480252E50030228079A
:0C277400AE2E7F00747FC39EFEE49FFF2A
:09278000EE2527FEEF3528FFA825
:0C278900298E828F8388F0122A3C606D3C
:022795007E00C4
:03279700BE080079
:0C279A005066AF2E7800747FC39FF9E4F6
:0A27A60098FAE92527F9EA3528FA28
:0C27B000AB2989828A838BF0122A3CF945
:0E27BC008E027B007407C39AFCE49BFD8CF038
:0527CA0005F0E98002AA
:0227CF00C31332
:0E27D100D5F0FB30E028747FC39FFFE498C46E
:0E27DF000354F8CFC403CF6FCF54F8CF6FF878
:0C27ED007407C39AFAE49BFBEA2FF52F57
:0627F900EB38F53080080A
:0327FF000E8095B4
:05280200052E02276B0A
:07280700852B821229E2AAD1
:0A280E002FE530C423CAC423541F71
:0C2818006ACA541FCA6ACAFBEA2527FAE4
:0A282400EB3528FBAC298A828B8378
:0C282E008CF0122A3CFA7407552FFB7C3A
:08283A00008BF005F0EA8002BA
:02284200C313BE
:0A284400D5F0FB30E00B752301C254
:05284E0002852D82123D
:0228530026F667
:042855007A017B0089
:0A285900C3E52F9AE5309B406BC2E7
:0928630004852D82C002C003129D
:0C286C00272FD003D002E52FC39AFCE513
:0C287800309B8C06C423CEC423541F6E7A
:0C288400CE541FCE6ECEFFEE2527FEEFD7
:0A2890003528FFA8298E828F838867
:0E289A00F0122A3CFE5304077D008CF005F07E
:0328A800EE8002BD
:0228AB00C31355
:0A28AD00D5F0FB30E013752301C2E3
:0928B70002852D82C002C003124B
:0628C00026F6D003D00251
:0728C6000ABA008F0B808CA1
:0628CD00752300D2028514
:0528D3002D820226F633
:0628D800AA82853126856D
:0328DE0032278519
:0328E10033288514
:0328E4003429850F
:0328E700382A8507
:0328EA00392B8502
:0828ED003A2C758200C00212B2
:0628F500274712296B8544
:0328FB00312685FE
:0328FE00352785F6
:03290100362885F0
:03290400372985EB
:032907003B2A85E3
:03290A003C2B85DE
:06290D003D2C7582011251
:06291300274712296B7535
:082919002200D20175820212B6
:0629210026DB75240175A0
:08292700251AC2037582031298
:04292F002711853FA8
:0729330023C20275820312AA
:06293A0026F6853E821224
:04294000297285383B
:0729440023C2027582031299
:04294B0026F6853FA8
:07294F0023C202758203128E
:0829560026F6D002752100D223
:06295E00008A820226C07F
:07296400758001758000225F
:07296B007580027580002257
:02297200AA8237
:072974007402B5A00280F916
:0B297B0075A0008A9075801075800028
:08298600E5A060FC75800F2242
:02298E00AA821B
:072990007402B5A00280F9FA
:0B29970075A0008A907580117580000B
:0829A200E5A060FC75800F2226
:0729AA007402B5A00280F9E0
:0729B1007580127580002201
:0229B800AA82F1
:0729BA007402B5A00280F9D0
:0B29C10075A0008A90758013758000DF
:0829CC00E5A060FC75800F22FC
:0729D4007402B5A00280F9B6
:0729DB0075801475800022D5
:0229E200AA82C7
:0729E4007402B5A00280F9A6
:0B29EB0075A0008A90758015758000B3
:0829F600E5A060FC75800F22D2
:0229FE00AA82AB
:072A00007402B5A00280F989
:0B2A070075A0008A9075801675800095
:082A1200E5A060FC75800F22B5
:0A2A1A0075A0007580207580002271
:0A2A240075A0007580307580002257
:0A2A2E0075A000758031758000224C
:042A380075B05522FE
:06003700E478FFF6D8FD9D
:080015007900E94400601B7A48
:05001D0000902A5C7850
:030022000075A0C6
:0A00250000E493F2A308B8000205FE
:08002F00A0D9F4DAF275A0FF7C
:08003D007800E84400600A7934
:030045000075A0A3
:0600480000E4F309D8FCFE
:08004E007800E84400600C7921
:0B00560000900000E4F0A3D8FCD9FAF1
:0300080075813FC0
:0A000B00122A58E582600302000388
:0E2A3C0020F71430F6148883A88220F507E6F0
:062A4A00A8837583002241
:032A5000E280F72A
:032A5300E49322E7
:022A5600E0227C
:042A58007582002261
:00000001FF
