:03000000020008F3
:0D006100900000740DF090000174D5F09037
:0C006E000002740FF09000037426F09064
:0C007A000004748FF09000057495F09065
:0C008600000674ADF09000077459F09073
:0C00920000087424F090000974A0F090A5
:0C009E00000A74DAF090000B748FF090F0
:0C00AA00000C74AEF090000D7427F09074
:0C00B600000E749FF090000F74D4F090C6
:0C00C2000010747AF090001174E7F090C8
:0C00CE000012747EF090001374BFF090DC
:0C00DA00001474DFF0900015742DF090FD
:0C00E60000167412F090001774DAF0900D
:0C00F20000187443F09000197414F09092
:0C00FE00001A740FF090001B7420F090AA
:0C010A00001C74FAF090001D7490F0903E
:0C011600001E7446F090001F74D5F0909D
:0C01220000207439F090002174F1F0907E
:0C012E00002274AAF09000237490F0905E
:0C013A0000247402F090002574E4F090A2
:0C014600002674DCF090002774A3F090F9
:0C0152000028749CF090002974A4F09028
:0C015E00002A74F2F090002B74FFF09067
:0C016A00002C7430F090002D74C1F09057
:0C017600002E7414F090002F7422F09002
:0C0182000030747EF09000317411F09099
:0C018E00003274E3F09000337477F090BE
:0B019A000034E4F0900035741AF0907F
:0C01A500003674ADF09000377450F090FC
:0C01B100003874E1F0900039747BF0908D
:0C01BD00003A7491F090003B744AF090FE
:0C01C900003C7492F090003D7408F0902F
:0C01D500003E7465F090003F7420F09034
:0C01E10000407475F09000417468F090CC
:0C01ED0000427474F090004374B3F09072
:0C01F90000447465F090004574B0F09074
:0C0205000046740CF090004774C6F090A6
:0C0211000048748BF090004974C9F09014
:0C021D00004A7410F090004B74EFF09059
:0C022900004C74C4F090004D744EF09036
:0C023500004E7445F090004F74ADF09046
:0C024100005074FAF090005174D2F0905C
:0C024D000052744FF09000537406F090C3
:0C025900005474ECF09000557429F090F3
:0C0265000056745CF090005774F3F090A9
:0C027100005874AAF09000597497F090A7
:0C027D00005A7482F090005B7470F090E6
:0C028900005C74B8F090005D7444F090CC
:0C029500005E7406F090005F7486F0902C
:0C02A100006074E0F09000617467F09061
:0C02AD00006274FCF09000637470F0902C
:0C02B90000647479F090006574A4F0906B
:0C02C500006674F0F090006774B3F090D5
:0C02D1000068740BF09000697448F09015
:0C02DD00006A74CDF090006B74F0F0909B
:0C02E900006C746CF090006D746FF0906D
:0C02F500006E740BF090006F748BF090A2
:0C03010000707425F09000717467F0909B
:0C030D0000727446F0900073748FF09042
:0C031900007474ECF090007574A4F09077
:0C032500007674C1F090007774E3F09053
:0C0331000078746AF09000797447F09036
:0C033D00007A740DF090007B74EBF090DF
:0C034900007C74A3F090007D7481F090A3
:0C035500007E74B5F090007F74BAF09048
:0C036100008074A3F09000817471F09093
:0C036D0000827479F09000837401F0901D
:0C037900008474FCF090008574F2F09099
:0C03850000867493F090008774C7F0901D
:0C0391000088741CF09000897469F090E2
:0C039D00008A742DF090008B7467F090C3
:0C03A900008C7438F090008D742BF090E4
:0C03B500008E747CF090008F741AF090A1
:0C03C10000907440F09000917488F0905F
:0C03CD00009274BAF0900093749BF090C2
:0C03D90000947410F09000957453F090A4
:0C03E50000967465F090009774EDF090A5
:0C03F100009874FEF09000997439F090B0
:0C03FD00009A74B4F090009B7477F090AC
:0C040900009C743BF090009D74C8F090C3
:0C041500009E749BF090009F74B2F09069
:0C04210000A074E4F09000A174B1F09011
:0C042D0000A274A3F09000A374C9F0902A
:0C04390000A474CDF09000A574C8F090F1
:0C04450000A674F2F09000A77469F0901B
:0C04510000A87401F09000A97491F090D4
:0C045D0000AA7487F09000AB7467F09068
:0C04690000AC74ACF09000AD746EF0902C
:0C04750000AE7456F09000AF74F1F090EF
:0C04810000B07460F09000B174BFF09007
:0C048D0000B2741EF09000B3740FF090E9
:0C04990000B47453F09000B574A8F0900B
:0C04A50000B674AFF09000B77440F09007
:0C04B10000B874DBF09000B97476F09095
:0C04BD0000BA74B2F09000BB74EAF0903A
:0C04C90000BC7490F09000BD74DDF09059
:0C04D50000BE74FFF09000BF7440F09077
:0C04E10000C0740CF09000C174D2F090C8
:0C04ED0000C2744DF09000C374DCF0906D
:0C04F90000C4745EF09000C574B3F09075
:0C05050000C674E7F09000C774FAF09094
:0C05110000C874B4F09000C97453F0905E
:0C051D0000CA745EF09000CB7475F09082
:0C05290000CC740BF09000CD7491F090A9
:0C05350000CE7492F09000CF7414F0908F
:0C05410000D0747EF09000D174D8F090CF
:0C054D0000D274B8F09000D374A7F090B6
:0C05590000D47405F09000D57495F0906B
:0C05650000D674D0F09000D77455F090D0
:0C05710000D87497F09000D97430F0901E
:0C057D0000DA7478F09000DB7441F0901C
:0C05890000DC7481F09000DD74EFF09055
:0C05950000DE74C6F09000DF7464F0908B
:0C05A10000E0749FF09000E1744AF090BC
:0C05AD0000E2749CF09000E3744AF090AF
:0C05B90000E4743AF09000E5740BF09040
:0C05C50000E674CAF09000E774D8F090D3
:0C05D10000E8749CF09000E9741AF090AF
:0C05DD0000EA7464F09000EB74A7F0904A
:0C05E90000EC74A9F09000ED746EF0902E
:0C05F50000EE74C8F09000EF740AF09063
:0C06010000F074E5F09000F174CEF09071
:0C060D0000F274E2F09000F3743BF090F7
:0C06190000F47473F09000F5748AF09007
:0C06250000F674EFF09000F774F0F09015
:0C06310000F874E4F09000F974A6F0905A
:0C063D0000FA7440F09000FB7426F0906E
:0C06490000FC74F3F09000FD74D9F090F8
:0C06550000FE7450F09000FF741FF09045
:0C06610001007408F090010174A2F090F8
:0C066D000102741AF090010374DBF0909D
:0C067900010474CBF09001057427F09090
:0C06850001067458F09001077466F090B4
:0C0691000108746CF090010974C0F09036
:0C069D00010A74A2F090010B7458F09058
:0C06A900010C747EF090010D7496F0902E
:0C06B500010E749DF090010F7415F09080
:0B06C100011074ADF0900111E4F09006
:0C06CC00011274F5F090011374ADF09071
:0C06D800011474BDF090011574C6F09080
:0C06E40001167462F090011774DEF090B3
:0C06F000011874B3F090011974C9F09067
:0C06FC00011A74F9F090011B745CF0907E
:0C070800011C74B8F090011D74C8F09042
:0C071400011E743AF090011F74D1F090A7
:0C0720000120742AF090012174CEF090AA
:0C072C000122741CF090012374FAF0907C
:0C0738000124743FF09001257488F090BB
:0C07440001267460F090012774C6F0904C
:0C075000012874FAF09001297404F09064
:0C075C00012A74C9F090012B7408F09081
:0C076800012C7468F090012D74B5F09025
:0C077400012E742FF090012F7401F09002
:0C07800001307488F09001317467F09033
:0C078C00013274DCF090013374FAF0903C
:0C079800013474D2F090013574F3F0903D
:0C07A4000136743EF090013774F6F090BE
:0C07B00001387480F09001397497F090CB
:0C07BC00013A74A0F090013B747FF090B3
:0C07C800013C749DF090013D7498F0908D
:0C07D400013E744DF090013F741BF0904A
:0C07E00001407420F090014174EAF09098
:0C07EC00014274AEF0900143749AF0904A
:0C07F800014474F8F0900145745CF0902E
:0C08040001467453F09001477471F090AD
:0C081000014874C4F0900149744CF09051
:0C081C00014A74BDF090014B74DAF090BA
:0C082800014C74BBF090014D744FF09037
:0C083400014E7403F090014F7414F0901A
:0C08400001507430F090015174E4F0900D
:0C084C0001527494F09001537472F0900B
:0C08580001547449F090015574AFF09009
:0C08640001567402F090015774FFF090F0
:0C08700001587468F09001597473F09006
:0C087C00015A74EDF090015B748BF09059
:0C088800015C7446F090015D74CFF090AC
:0C089400015E74D0F090015F7489F09058
:0C08A000016074A7F090016174B5F09045
:0C08AC0001627464F09001637476F090B7
:0C08B800016474C2F090016574BDF09002
:0C08C40001667468F090016774D3F09036
:0C08D000016874ACF0900169740FF090A6
:0C08DC00016A74D1F090016B7480F09000
:0C08E800016C74E8F090016D743EF0901B
:0C08F400016E7402F090016F7427F09008
:0C09000001707482F090017174B3F090EB
:0C090C00017274EAF0900173748EF09098
:0C09180001747432F0900175747AF09054
:0C092400017674D0F090017774E9F09037
:0C0930000178749CF09001797459F090EB
:0C093C00017A7468F090017B7481F090E7
:0C094800017C740FF090017D743CF09075
:0B095400017E749EF090017F74BAF0E9
:03095F0002000390
:05000300120A3380FE2B
:07096200E4F590F508F5092A
:0A096900C3E5089480E509940050EE
:0909730027AA0874402509FBAC19
:0A097C0008747FC39C2480F582E418
:0C0986003400F583E0FC8A828B83F005CE
:0609920008E4B508D205DF
:030998000980CE05
:05099B00E4F508F50978
:0A09A000C3E5089480E509940050B7
:0A09AA002AE5082480FAE50934402C
:0A09B400FBAC08747FC39C2400F51F
:0C09BE0082E43401F583E0FC8A828B8324
:0809CA00F00508E4B508CF05B3
:0309D2000980CBCE
:0509D500E4F508F5093E
:0A09DA00C3E5089480E5099400507D
:0909E40027AA0874412509FBACA7
:0A09ED0008747FC39C2400F582E427
:0C09F7003400F583E0FC8A828B83F0055D
:060A030008E4B508D2056D
:030A09000980CE93
:060A0C00758001758000F9
:080A1200E59060FC75800422F0
:030A1A00758003E1
:0B0A1D00E59060FC75800475800022ED
:070A280075800275800022B9
:040A2F0075B0552227
:0D0A330012096290FFFE7401F0120A289073
:0C0A4000FFFF7401F0120A1AE4F590F5B3
:030A4C0008F509A1
:0A0A4F00C3E5089480E50994005007
:090A590021AA0874402509FB855F
:0A0A6200088274022509F583E0FC08
:0A0A6C008A828B83F00508E4B508C8
:050A7600D8050980D441
:070A7B00120A2F9000002277
:06003700E478FFF6D8FD9D
:080015007900E94400601B7A48
:05001D0000900A867846
:030022000075A0C6
:0A00250000E493F2A308B8000205FE
:08002F00A0D9F4DAF275A0FF7C
:08003D007800E84400600A7934
:030045000075A0A3
:0600480000E4F309D8FCFE
:08004E007800E84400600C7921
:0B00560000900000E4F0A3D8FCD9FAF1
:03000800758109F6
:0A000B00120A82E58260030200037E
:040A82007582002257
:00000001FF
