:03000000020008F3
:0D00610090410174A3F09041027410F090E2
:0C006E004103746BF09041047483F09027
:0C007A004105747CF09041067440F09049
:0C008600410774BFF090410874B2F09084
:0C00920041097454F090410A7428F09069
:0C009E00410B7420F090410C744DF09068
:0C00AA00410D74B2F090410E74D4F0903F
:0C00B600410F74F8F090411074A6F09017
:0C00C200411174E5F090411274B7F09009
:0C00CE0041137451F090411474BAF0908A
:0C00DA00411574E8F090411674D1F090CC
:0C00E60041177495F0904118749AF09046
:0C00F200411974FEF090411A74ABF090BC
:0C00FE00411B740AF090411C7448F09003
:0C010A00411D7423F090411E74A2F0907F
:0C011600411F7470F090412074B3F09011
:0C012200412174CCF0904122747BF090DD
:0C012E004123748FF09041247444F09041
:0C013A00412574F4F0904126745BF090B5
:0C01460041277453F09041287478F09029
:0C0152004129747DF090412A74E2F09085
:0C015E00412B74F2F090412C74AFF09033
:0C016A00412D74D2F090412E74BAF09038
:0C017600412F7406F0904130740FF0909F
:0C018200413174EEF090413274A4F09012
:0C018E0041337437F09041347406F09057
:0C019A00413574E7F09041367404F09099
:0C01A6004137742CF09041387490F090B8
:0C01B2004139743CF090413A748BF0909D
:0C01BE00413B74FDF090413C7454F09003
:0C01CA00413D74CDF090413E74B9F090BE
:0C01D600413F7494F090414074ADF090F3
:0C01E20041417464F0904142748EF09032
:0C01EE0041437426F090414474DEF09010
:0C01FA004145748CF090414674C5F090B3
:0C02060041477433F09041487492F0902E
:0C02120041497424F090414A74EFF090D0
:0C021E00414B7476F090414C7434F09029
:0C022A00414D74C4F090414E74B8F09047
:0C023600414F74ECF090415074F1F090D6
:0C0242004151749AF09041527479F09090
:0C024E0041537461F09041547480F090B2
:0C025A00415574C1F090415674BCF09006
:0C0266004157746DF09041587403F09003
:0C02720041597449F090415A7495F09085
:0C027E00415B7494F090415C74C8F090F7
:0C028A00415D746FF090415E7414F090C0
:0C029600415F74B0F09041607416F0906D
:0C02A20041617414F09041627463F090AC
:0C02AE00416374D0F09041647494F090AF
:0C02BA00416574D9F09041667410F0901A
:0C02C6004167744BF09041687444F09064
:0C02D20041697403F090416A74C2F0901E
:0C02DE00416B74CCF090416C7404F09003
:0C02EA00416D7468F090416E7498F090C3
:0C02F600416F746CF090417074D9F0906E
:0C03020041717469F090417274C7F09072
:0C030E004173741AF0904174740FF09069
:0C031A00417574C5F09041767439F09084
:0C0326004177745CF0904178746AF090AC
:0C0332004179745AF090417A7467F090A1
:0C033E00417B740BF090417C7447F09000
:0C034A00417D74F4F090417E7477F090D7
:0C035600417F741EF0904180742BF090E9
:0C0362004081744BF09040827461F09078
:0C036E00408374D1F090408474A8F0909B
:0C037A0040857405F09040867436F090C9
:0C038600408774B5F090408874E7F09058
:0C039200408974C6F090408A746AF090B4
:0C039E00408B7409F090408C7448F09083
:0C03AA00408D74E1F090408E7409F090DA
:0C03B600408F749AF09040907462F090B8
:0C03C2004091746CF090409274CCF0906C
:0C03CE00409374B9F09040947482F09059
:0C03DA0040957401F09040967488F090FB
:0C03E600409774EDF09040987437F09050
:0C03F200409974C7F090409A74DDF090C0
:0C03FE00409B74EBF090409C748CF090DD
:0C040A00409D74C1F090409E74F2F09090
:0C041600409F7496F09040A07483F0901A
:0C04220040A17419F09040A2745EF090AC
:0C042E0040A374D1F09040A4743FF09003
:0C043A0040A574F6F09040A67480F0908D
:0C04460040A77415F09040A874BBF09023
:0C04520040A974ACF09040AA7460F090D7
:0C045E0040AB7427F09040AC7480F0902C
:0C046A0040AD7483F09040AE743CF09004
:0C04760040AF7425F09040B0749BF090F3
:0C04820040B174F1F09040B27489F09029
:0C048E0040B374E3F09040B47478F09038
:0C049A0040B57410F09040B6743DF09036
:0C04A60040B77453F09040B87421F090FF
:0C04B20040B97416F09040BA744AF09003
:0C04BE0040BB74A3F09040BC740CF090A4
:0C04CA0040BD74ADF09040BE7464F09032
:0C04D60040BF74D2F09040C07450F09011
:0C04E20040C174C2F09040C27410F09051
:0C04EE0040C37448F09040C47487F09044
:0C04FA0040C574DAF09040C674C2F09067
:0C05060040C774EBF09040C874F1F09016
:0C05120040C974FCF09040CA748FF09057
:0C051E0040CB74FFF09040CC74E5F090EE
:0C052A0040CD74CAF09040CE744DF090AB
:0C05360040CF74A9F09040D07468F090A1
:0C05420040D174CDF09040D2743AF0909B
:0C054E0040D3747BF09040D47441F090D6
:0C055A0040D57483F09040D67453F090AC
:0C05660040D7745EF09040D874BBF09059
:0C05720040D97444F09040DA748DF09091
:0C057E0040DB749AF09040DC7434F09084
:0C058A0040DD7486F09040DE74B3F09009
:0C05960040DF7462F09040E0747FF09051
:0C05A20040E1749DF09040E27496F090EF
:0C05AE0040E374B0F09040E474ACF090B6
:0C05BA0040E574B1F09040E67430F09021
:0C05C60040E774CDF09040E87425F09000
:0C05D20040E97460F09040EA74B0F090D2
:0C05DE0040EB7442F09040EC74C3F090CD
:0C05EA0040ED74E7F09040EE74B0F0902B
:0C05F60040EF74EDF09040F074DAF090EB
:0C06020040F174B9F09040F27411F090D7
:0C060E0040F3747DF09040F4742CF090E8
:0C061A0040F57427F09040F674F6F09064
:0C06260040F7748CF09040F874D8F0900D
:0C06320040F974AAF09040FA743BF0907C
:0C063E0040FB74E7F09040FC744FF0901B
:0C064A0040FD7486F09040FE741FF0909C
:0C06560040FF7496F0904100742EF0906C
:0C0662004201745DF090420274EFF090D1
:0C066E0042037494F0904204747CF090FD
:0C067A0042057483F090420674BFF090BB
:0C06860042077440F0904208744DF09060
:0C069200420974ABF090420A74D7F0905B
:0C069E00420B74DFF090420C74B2F0903C
:0C06AA00420D744DF090420E742BF09045
:0C06B600420F7407F09042107459F0904D
:0C06C2004211741AF09042127448F0903B
:0C06CE00421374AEF09042147445F0909A
:0C06DA0042157417F0904216742EF09038
:0C06E6004217746AF09042187465F0909E
:0C06F20042197401F090421A7454F09008
:0C06FE00421B74F5F090421C74B7F090A1
:0C070A00421D74DCF090421E745DF09003
:0C071600421F748FF0904220744CF09051
:0C07220042217433F09042227484F09065
:0C072E0042237470F090422474BBF090E1
:0C073A004225740BF090422674A4F0904D
:0C074600422774ACF09042287487F090B9
:0C07520042297482F090422A741DF0903D
:0C075E00422B740DF090422C7450F0906F
:0C076A00422D742DF090422E7445F0904A
:0C077600422F74F9F090423074F0F090C3
:0C07820042317411F0904232745BF09030
:0C078E00423374C8F090423474F9F090CB
:0C079A0042357418F090423674FBF09069
:0C07A600423774D3F0904238746FF0902A
:0C07B200423974C3F090423A7474F09025
:0C07BE00423B7402F090423C74ABF0909F
:0C07CA00423D7432F090423E7446F090C4
:0C07D600423F746BF09042407452F0906F
:0C07E2004241749BF09042427471F09010
:0C07EE00424374D9F09042447421F09012
:0C07FA0042457473F0904246743AF0904F
:0C080600424774CCF0904248746DF090B2
:0C081200424974DBF090424A7410F090F0
:0C081E00424B7489F090424C74CBF09077
:0C082A00424D743BF090424E7447F09039
:0C083600424F7413F0904250740EF0908A
:0C08420042517465F09042527486F090B0
:0C084E004253749EF0904254747FF0906E
:0C085A004255743EF09042567443F090FA
:0C08660042577492F090425874FCF090DD
:0C087200425974B6F090425A746AF0903B
:0C087E00425B746BF090425C7437F090A9
:0C088A00425D7490F090425E74EBF090C0
:0C089600425F744FF090426074E9F090F3
:0C08A200426174EBF0904262749CF09094
:0C08AE004263742FF0904264746BF09071
:0C08BA0042657426F090426674EFF090E6
:0C08C600426774B4F090426874BBF0907C
:0C08D200426974FCF090426A743DF090A2
:0C08DE00426B7433F090426C74FBF0909D
:0C08EA00426D7497F090426E7467F090BD
:0C08F600426F7493F09042707426F090F2
:0C09020042717496F09042727438F090CC
:0C090E00427374E5F090427474F0F090B5
:0C091A004275743AF090427674C6F0907A
:0C092600427774A3F09042787495F09032
:0C093200427974A5F090427A7498F0901D
:0C093E00427B74F4F090427C74B8F0909E
:0C094A00427D740BF090427E7488F090A7
:0C095600427F74E1F090428074D4F09075
:0C09620040007489F09040017415F09082
:0C096E0040027430F09040037441F0909F
:0C097A004004743EF0904005747FF09043
:0C098600400674EFF09040077415F090EC
:0C099200400874E4F09040097459F090A3
:0C099E00400A7432F090400B74AFF090EF
:0C09AA00400C74B2F090400D746DF090A1
:0C09B600400E7461F090400F7415F0903A
:0C09C200401074ACF09040117453F090A1
:0C09CE0040127486F090401374BAF09050
:0C09DA00401474CBF090401574C2F090F3
:0C09E600401674CEF09040177420F09082
:0C09F200401874DBF0904019745BF0902A
:0C09FE00401A74E6F090401B74EEF0907C
:0C0A0A00401C74D5F090401D7402F09068
:0C0A1600401E748CF090401F74EAF090B9
:0C0A2200402074D5F09040217470F090DA
:0C0A2E004022740CF090402374BCF09047
:0C0A3A0040247450F090402574BDF090F2
:0C0A4600402674C2F0904027747AF090B3
:0C0A520040287407F090402974F6F090E2
:0C0A5E00402A74BBF090402B743CF090D8
:0B0A6A00402CE4F090402D7438F09018
:0C0A7500402E7406F090402F7424F09086
:0C0A810040307470F09040317495F0909B
:0C0A8D00403274E1F09040337472F0903D
:0C0A99004034745BF090403574DCF09049
:0C0AA500403674D6F090403774CEF090CC
:0C0AB1004038742DF09040397416F0901D
:0C0ABD00403A7491F090403B7445F0907A
:0C0AC900403C74BEF090403D74AEF090D4
:0C0AD500403E7408F090403F747CF090AC
:0C0AE10040407464F090404174D8F090E4
:0C0AED00404274F1F090404374A0F0907F
:0C0AF900404474B2F09040457493F090BB
:0C0B050040467482F0904047742DF09040
:0C0B1100404874F5F090404974E0F0900A
:0C0B1D00404A74C5F090404B7483F09087
:0C0B2900404C74B3F090404D741BF090F1
:0C0B3500404E74B2F090404F7402F090FB
:0C0B410040507403F09040517408F09094
:0C0B4D004052749EF09040537401F090F0
:0C0B590040547416F0904055745BF0900E
:0C0B650040567449F090405774A9F0907D
:0C0B71004058744DF09040597482F09090
:0C0B7D00405A74C6F090405B742EF0905B
:0C0B8900405C7415F090405D7488F090A2
:0C0B9500405E745CF090405F74DDF090F6
:0C0BA1004060742FF09040617439F090B7
:0C0BAD00406274B1F0904063745BF09003
:0C0BB900406474BAF0904065744CF090F9
:0C0BC5004066742AF0904067749CF09029
:0C0BD10040687484F090406974E2F09079
:0C0BDD00406A74ADF090406B74B0F09072
:0C0BE900406C74B3F090406D74F5F09017
:0C0BF500406E74D7F090406F7447F09091
:0C0C0100407074C0F09040717424F090BA
:0C0C0D004072746FF090407374FBF09024
:0C0C1900407474A3F09040757441F0909A
:0C0C2500407674F4F09040777453F09027
:0C0C31004078742DF090407974C5F0906C
:0C0C3D00407A748EF090407B7465F0905B
:0C0C4900407C7489F090407D74DFF090D6
:0C0C5500407E74CEF090407F74B9F090A7
:0B0C610041817401F09041827401F0A9
:030C6C0002000380
:05000300120C9980FEC3
:090C6F007590007580017580008C
:080C7800E59060FC7580042288
:030C800075800379
:0B0C8300E59060FC7580047580002285
:070C8E007580027580002251
:040C950075B05522BF
:070C9900120C6F120C8E1209
:090CA0000C80120C95900000225A
:06003700E478FFF6D8FD9D
:080015007900E94400601B7A48
:05001D0000900CAD781D
:030022000075A0C6
:0A00250000E493F2A308B8000205FE
:08002F00A0D9F4DAF275A0FF7C
:08003D007800E84400600A7934
:030045000075A0A3
:0600480000E4F309D8FCFE
:08004E007800E84400600C7921
:0B00560000900000E4F0A3D8FCD9FAF1
:03000800758109F6
:0A000B00120CA9E582600302000355
:040CA900758200222E
:00000001FF
