:03000000020008F3
:0D00610090000074A3F09000017410F09066
:0C006E000002746BF09000037483F090AB
:0C007A000004747CF09000057440F090CD
:0C008600000674BFF090000774B2F09008
:0C00920000087454F09000097428F090ED
:0C009E00000A7420F090000B744DF090EC
:0C00AA00000C74B2F090000D74D4F090C3
:0C00B600000E74F8F090000F74A6F0909B
:0C00C200001074E5F090001174B7F0908D
:0C00CE0000127451F090001374BAF0900E
:0C00DA00001474E8F090001574D1F09050
:0C00E60000167495F0900017749AF090CA
:0C00F200001874FEF090001974ABF09040
:0C00FE00001A740AF090001B7448F09087
:0C010A00001C7423F090001D74A2F09003
:0C011600001E7470F090001F74B3F09095
:0C012200002074CCF0900021747BF09061
:0C012E000022748FF09000237444F090C5
:0C013A00002474F4F0900025745BF09039
:0C01460000267453F09000277478F090AD
:0C0152000028747DF090002974E2F09009
:0C015E00002A74F2F090002B74AFF090B7
:0C016A00002C74D2F090002D74BAF090BC
:0C017600002E7406F090002F740FF09023
:0C018200003074EEF090003174A4F09096
:0C018E0000327437F09000337406F090DB
:0C019A00003474E7F09000357404F0901D
:0C01A6000036742CF09000377490F0903C
:0C01B2000038743CF0900039748BF09021
:0C01BE00003A74FDF090003B7454F09087
:0C01CA00003C74CDF090003D74B9F09042
:0C01D600003E7494F090003F74ADF09077
:0C01E20000407464F0900041748EF090B6
:0C01EE0000427426F090004374DEF09094
:0C01FA000044748CF090004574C5F09037
:0C02060000467433F09000477492F090B2
:0C02120000487424F090004974EFF09054
:0C021E00004A7476F090004B7434F090AD
:0C022A00004C74C4F090004D74B8F090CB
:0C023600004E74ECF090004F74F1F0905A
:0C0242000050749AF09000517479F09014
:0C024E0000527461F09000537480F09036
:0C025A00005474C1F090005574BCF0908A
:0C0266000056746DF09000577403F09087
:0C02720000587449F09000597495F09009
:0C027E00005A7494F090005B74C8F0907B
:0C028A00005C746FF090005D7414F09044
:0C029600005E74B0F090005F7416F090F1
:0C02A20000607414F09000617463F09030
:0C02AE00006274D0F09000637494F09033
:0C02BA00006474D9F09000657410F0909E
:0C02C6000066744BF09000677444F090E8
:0C02D20000687403F090006974C2F090A2
:0C02DE00006A74CCF090006B7404F09087
:0C02EA00006C7468F090006D7498F09047
:0C02F600006E746CF090006F74D9F090F2
:0C03020000707469F090007174C7F090F6
:0C030E000072741AF0900073740FF090ED
:0C031A00007474C5F09000757439F09008
:0C0326000076745CF0900077746AF09030
:0C0332000078745AF09000797467F09025
:0C033E00007A740BF090007B7447F09084
:0C034A00007C74F4F090007D7477F0905B
:0C035600007E741EF090007F742BF0906D
:0C0362000080744BF09000817461F090FA
:0C036E00008274D1F090008374A8F0901D
:0C037A0000847405F09000857436F0904B
:0C038600008674B5F090008774E7F090DA
:0C039200008874C6F0900089746AF09036
:0C039E00008A7409F090008B7448F09005
:0C03AA00008C74E1F090008D7409F0905C
:0C03B600008E749AF090008F7462F0903A
:0C03C2000090746CF090009174CCF090EE
:0C03CE00009274B9F09000937482F090DB
:0C03DA0000947401F09000957488F0907D
:0C03E600009674EDF09000977437F090D2
:0C03F200009874C7F090009974DDF09042
:0C03FE00009A74EBF090009B748CF0905F
:0C040A00009C74C1F090009D74F2F09012
:0C041600009E7496F090009F7483F0909C
:0C04220000A07419F09000A1745EF0902E
:0C042E0000A274D1F09000A3743FF09085
:0C043A0000A474F6F09000A57480F0900F
:0C04460000A67415F09000A774BBF090A5
:0C04520000A874ACF09000A97460F09059
:0C045E0000AA7427F09000AB7480F090AE
:0C046A0000AC7483F09000AD743CF09086
:0C04760000AE7425F09000AF749BF09075
:0C04820000B074F1F09000B17489F090AB
:0C048E0000B274E3F09000B37478F090BA
:0C049A0000B47410F09000B5743DF090B8
:0C04A60000B67453F09000B77421F09081
:0C04B20000B87416F09000B9744AF09085
:0C04BE0000BA74A3F09000BB740CF09026
:0C04CA0000BC74ADF09000BD7464F090B4
:0C04D60000BE74D2F09000BF7450F09093
:0C04E20000C074C2F09000C17410F090D3
:0C04EE0000C27448F09000C37487F090C6
:0C04FA0000C474DAF09000C574C2F090E9
:0C05060000C674EBF09000C774F1F09098
:0C05120000C874FCF09000C9748FF090D9
:0C051E0000CA74FFF09000CB74E5F09070
:0C052A0000CC74CAF09000CD744DF0902D
:0C05360000CE74A9F09000CF7468F09023
:0C05420000D074CDF09000D1743AF0901D
:0C054E0000D2747BF09000D37441F09058
:0C055A0000D47483F09000D57453F0902E
:0C05660000D6745EF09000D774BBF090DB
:0C05720000D87444F09000D9748DF09013
:0C057E0000DA749AF09000DB7434F09006
:0C058A0000DC7486F09000DD74B3F0908B
:0C05960000DE7462F09000DF747FF090D3
:0C05A20000E0749DF09000E17496F09071
:0C05AE0000E274B0F09000E374ACF09038
:0C05BA0000E474B1F09000E57430F090A3
:0C05C60000E674CDF09000E77425F09082
:0C05D20000E87460F09000E974B0F09054
:0C05DE0000EA7442F09000EB74C3F0904F
:0C05EA0000EC74E7F09000ED74B0F090AD
:0C05F60000EE74EDF09000EF74DAF0906D
:0C06020000F074B9F09000F17411F09059
:0C060E0000F2747DF09000F3742CF0906A
:0C061A0000F47427F09000F574F6F090E6
:0C06260000F6748CF09000F774D8F0908F
:0C06320000F874AAF09000F9743BF090FE
:0C063E0000FA74E7F09000FB744FF0909D
:0C064A0000FC7486F09000FD741FF0901E
:0C06560000FE7496F09000FF742EF090EF
:0C0662000100745DF090010174EFF09055
:0C066E0001027494F0900103747CF09081
:0C067A0001047483F090010574BFF0903F
:0C06860001067440F0900107744DF090E4
:0C069200010874ABF090010974D7F090DF
:0C069E00010A74DFF090010B74B2F090C0
:0C06AA00010C744DF090010D742BF090C9
:0C06B600010E7407F090010F7459F090D1
:0C06C2000110741AF09001117448F090BF
:0C06CE00011274AEF09001137445F0901E
:0C06DA0001147417F0900115742EF090BC
:0C06E6000116746AF09001177465F09022
:0C06F20001187401F09001197454F0908C
:0C06FE00011A74F5F090011B74B7F09025
:0C070A00011C74DCF090011D745DF09087
:0C071600011E748FF090011F744CF090D5
:0C07220001207433F09001217484F090E9
:0C072E0001227470F090012374BBF09065
:0C073A000124740BF090012574A4F090D1
:0C074600012674ACF09001277487F0903D
:0C07520001287482F0900129741DF090C1
:0C075E00012A740DF090012B7450F090F3
:0C076A00012C742DF090012D7445F090CE
:0C077600012E74F9F090012F74F0F09047
:0C07820001307411F0900131745BF090B4
:0C078E00013274C8F090013374F9F0904F
:0C079A0001347418F090013574FBF090ED
:0C07A600013674D3F0900137746FF090AE
:0C07B200013874C3F09001397474F090A9
:0C07BE00013A7402F090013B74ABF09023
:0C07CA00013C7432F090013D7446F09048
:0C07D600013E746BF090013F7452F090F3
:0C07E2000140749BF09001417471F09094
:0C07EE00014274D9F09001437421F09096
:0C07FA0001447473F0900145743AF090D3
:0C080600014674CCF0900147746DF09036
:0C081200014874DBF09001497410F09074
:0C081E00014A7489F090014B74CBF090FB
:0C082A00014C743BF090014D7447F090BD
:0C083600014E7413F090014F740EF0900E
:0C08420001507465F09001517486F09034
:0C084E000152749EF0900153747FF090F2
:0C085A000154743EF09001557443F0907E
:0C08660001567492F090015774FCF09061
:0C087200015874B6F0900159746AF090BF
:0C087E00015A746BF090015B7437F0902D
:0C088A00015C7490F090015D74EBF09044
:0C089600015E744FF090015F74E9F09077
:0C08A200016074EBF0900161749CF09018
:0C08AE000162742FF0900163746BF090F5
:0C08BA0001647426F090016574EFF0906A
:0C08C600016674B4F090016774BBF09000
:0C08D200016874FCF0900169743DF09026
:0C08DE00016A7433F090016B74FBF09021
:0C08EA00016C7497F090016D7467F09041
:0C08F600016E7493F090016F7426F09076
:0C09020001707496F09001717438F09050
:0C090E00017274E5F090017374F0F09039
:0C091A000174743AF090017574C6F090FE
:0C092600017674A3F09001777495F090B6
:0C093200017874A5F09001797498F090A1
:0C093E00017A74F4F090017B74B8F09022
:0C094A00017C740BF090017D7488F0902B
:0C095600017E74E1F090017F74D4F090F9
:0C09620001807489F09001817415F09000
:0C096E0001827430F09001837441F0901D
:0C097A000184743EF0900185747FF090C1
:0C098600018674EFF09001877415F0906A
:0C099200018874E4F09001897459F09021
:0C099E00018A7432F090018B74AFF0906D
:0C09AA00018C74B2F090018D746DF0901F
:0C09B600018E7461F090018F7415F090B8
:0C09C200019074ACF09001917453F0901F
:0C09CE0001927486F090019374BAF090CE
:0C09DA00019474CBF090019574C2F09071
:0C09E600019674CEF09001977420F09000
:0C09F200019874DBF0900199745BF090A8
:0C09FE00019A74E6F090019B74EEF090FA
:0C0A0A00019C74D5F090019D7402F090E6
:0C0A1600019E748CF090019F74EAF09037
:0C0A220001A074D5F09001A17470F09058
:0C0A2E0001A2740CF09001A374BCF090C5
:0C0A3A0001A47450F09001A574BDF09070
:0C0A460001A674C2F09001A7747AF09031
:0C0A520001A87407F09001A974F6F09060
:0C0A5E0001AA74BBF09001AB743CF09056
:0B0A6A0001ACE4F09001AD7438F09096
:0C0A750001AE7406F09001AF7424F09004
:0C0A810001B07470F09001B17495F09019
:0C0A8D0001B274E1F09001B37472F090BB
:0C0A990001B4745BF09001B574DCF090C7
:0C0AA50001B674D6F09001B774CEF0904A
:0C0AB10001B8742DF09001B97416F0909B
:0C0ABD0001BA7491F09001BB7445F090F8
:0C0AC90001BC74BEF09001BD74AEF09052
:0C0AD50001BE7408F09001BF747CF0902A
:0C0AE10001C07464F09001C174D8F09062
:0C0AED0001C274F1F09001C374A0F090FD
:0C0AF90001C474B2F09001C57493F09039
:0C0B050001C67482F09001C7742DF090BE
:0C0B110001C874F5F09001C974E0F09088
:0C0B1D0001CA74C5F09001CB7483F09005
:0C0B290001CC74B3F09001CD741BF0906F
:0C0B350001CE74B2F09001CF7402F09079
:0C0B410001D07403F09001D17408F09012
:0C0B4D0001D2749EF09001D37401F0906E
:0C0B590001D47416F09001D5745BF0908C
:0C0B650001D67449F09001D774A9F090FB
:0C0B710001D8744DF09001D97482F0900E
:0C0B7D0001DA74C6F09001DB742EF090D9
:0C0B890001DC7415F09001DD7488F09020
:0C0B950001DE745CF09001DF74DDF09074
:0C0BA10001E0742FF09001E17439F09035
:0C0BAD0001E274B1F09001E3745BF09081
:0C0BB90001E474BAF09001E5744CF09077
:0C0BC50001E6742AF09001E7749CF090A7
:0C0BD10001E87484F09001E974E2F090F7
:0C0BDD0001EA74ADF09001EB74B0F090F0
:0C0BE90001EC74B3F09001ED74F5F09095
:0C0BF50001EE74D7F09001EF7447F0900F
:0C0C010001F074C0F09001F17424F09038
:0C0C0D0001F2746FF09001F374FBF090A2
:0C0C190001F474A3F09001F57441F09018
:0C0C250001F674F4F09001F77453F090A5
:0C0C310001F8742DF09001F974C5F090EA
:0C0C3D0001FA748EF09001FB7465F090D9
:0C0C490001FC7489F09001FD74DFF09054
:0C0C550001FE74CEF09001FF74B9F09025
:0C0C610002007401F09002017401F09098
:0C0C6D00028074A1F09002817480F0906D
:0C0C790002827448F09002837428F0900E
:0C0C8500028474C3F090028574FEF090AD
:0C0C910002867404F090028774B3F090A7
:0C0C9D00028874F2F090028974EFF0906D
:0C0CA900028A74AFF090028B743EF09051
:0C0CB500028C7455F090028D7446F09093
:0C0CC100028E744EF090028F74C8F09008
:0C0CCD0002907447F0900291747AF0904D
:0C0CD9000292741CF09002937483F0905F
:0C0CE50002947474F090029574D7F090A3
:0C0CF10002967411F090029774D1F090FC
:0C0CFD00029874FBF09002997416F090BD
:0C0D0900029A7444F090029B7472F09007
:0C0D1500029C748CF090029D744BF090D6
:0C0D2100029E74D5F090029F74FDF090CB
:0C0D2D0002A074B9F09002A174FAF090DA
:0C0D390002A27404F09002A374E1F09098
:0C0D450002A4743EF09002A5743AF090F5
:0C0D510002A67416F09002A77404F09043
:0C0D5D0002A87455F09002A97441F090B7
:0C0D690002AA74D0F09002AB748AF090E3
:0C0D750002AC7492F09002AD7438F09063
:0C0D810002AE74F4F09002AF74D4F09055
:0C0D8D0002B074AEF09002B1747AF090E5
:0C0D990002B27460F09002B374E2F090BB
:0C0DA50002B47469F09002B574AAF090DA
:0C0DB10002B674A6F09002B77463F090D4
:0C0DBD0002B874A1F09002B974EBF09041
:0C0DC90002BA7405F09002BB7471F09047
:0C0DD50002BC7499F09002BD7471F090A3
:0C0DE10002BE74E3F09002BF7467F09053
:0C0DED0002C0742AF09002C17457F0900C
:0C0DF90002C274F7F09002C3746BF0901B
:0C0E050002C47482F09002C574B3F09037
:0C0E110002C674F0F09002C77482F090EA
:0C0E1D0002C87458F09002C97454F090A0
:0C0E290002CA74AFF09002CB74C3F090CA
:0C0E350002CC74D1F09002CD74EFF0906C
:0C0E410002CE7468F09002CF747EF09036
:0C0E4D0002D07488F09002D174BDF090C7
:0C0E590002D27439F09002D3742BF09098
:0C0E650002D4742AF09002D5747CF09046
:0C0E710002D67414F09002D774F8F090D0
:0C0E7D0002D874C7F09002D974D0F09035
:0C0E890002DA74F9F09002DB7464F0905F
:0C0E950002DC749AF09002DD74BAF09058
:0C0EA10002DE746FF09002DF7445F090E8
:0C0EAD0002E07428F09002E1745DF09007
:0C0EB90002E274D7F09002E374E2F090C3
:0C0EC50002E474C4F09002E5748EF0901A
:0C0ED10002E6749FF09002E7746FF0904E
:0C0EDD0002E874A8F09002E97488F0901C
:0C0EE90002EA74ADF09002EB74FDF09092
:0C0EF50002EC7428F09002ED7492F09072
:0C0F010002EE744FF09002EF7463F09069
:0C0F0D0002F07441F09002F17470F0905A
:0C0F190002F27422F09002F374ADF0902C
:0C0F250002F474ABF09002F5744EF090F2
:0C0F310002F6741DF09002F77463F0905B
:0C0F3D0002F87489F09002F974CCF09076
:0C0F490002FA7409F09002FB7442F09070
:0C0F550002FC74FEF09002FD74BCF090F1
:0B0F610002FE74CFF09002FF743AF023
:030F6C000200037D
:050003001210F680FE62
:0C0F6F00AA82AB83ACF0E4F590F508F525
:010F7B00096C
:0A0F7C00C3E5089480E509940050D5
:0A0F860032AD0874402509FE747FA7
:0A0F9000C39508FFE49509F8EF2A65
:0D0F9A00FFE83BF88C018F82888389F012FC
:0C0FA7001170FF8D828E83F00508E4B508
:060FB30008C7050980C318
:050FB900E4F508F50954
:0A0FBE00C3E5089480E50994005093
:0A0FC80037E5082480FAE5093440FB
:0A0FD200FB747FC39508FCE4950949
:0A0FDC00FDEC250AFCED350BFDAE1F
:0C0FE6000C8C828D838EF0121170FC8A3E
:0A0FF200828B83F00508E4B508C205
:040FFC00050980BEA5
:05100000E4F508F5090C
:0A100500C3E5089480E5099400504B
:0A100F0034AA0874412509FB747F20
:0A101900C39508FCE49509FDEC25E1
:071023000DFCED350EFDAEE2
:0C102A000F8C828D838EF0121170FC8AF6
:0A103600828B83F00508E4B508C5BD
:04104000050980C15D
:05104400E4F508F509C8
:0A104900C3E5089480E50994005007
:0A10530037E5082480FAE50934416E
:0A105D00FB747FC39508FCE49509BD
:0A106700FDEC2510FCED3511FDAE87
:0C107100128C828D838EF0121170FC8AAC
:0A107D00828B83F00508E4B508C279
:04108700050980BE19
:05108B00E4F508F50981
:0A109000C3E5089480E509940050C0
:0A109A0034AA0874422509FB747F94
:0A10A400C39508FCE49509FDEC2556
:0710AE0013FCED3514FDAE4B
:0C10B500158C828D838EF0121170FC8A65
:0A10C100828B83F00508E4B508C532
:0410CB00050980C1D2
:0610CF0075800175800030
:0810D500E59060FC7580042227
:0310DD0075800318
:0B10E000E59060FC7580047580002224
:0710EB0075800275800022F0
:0410F20075B055225E
:0410F600750A807582
:0310FA000B007573
:0410FD000C00750D61
:0311010000750E68
:0511040000750F0075ED
:031109001000755E
:03110C0011027558
:04110F001200751342
:0311130000751450
:051116000175150090B9
:09111B00018075F000120F6F1243
:0911240010EB1210DDE4F590F56A
:03112D0008F509B9
:0A113000C3E5089480E5099400501F
:09113A0021AA0874412509FB8576
:0A114300088274502509F583E0FCD2
:0A114D008A828B83F00508E4B508E0
:05115700D8050980D459
:06115C00758001758000A2
:0E116200E59060FC7580041210F290000022EF
:06003700E478FFF6D8FD9D
:080015007900E94400601B7A48
:05001D00009011907835
:030022000075A0C6
:0A00250000E493F2A308B8000205FE
:08002F00A0D9F4DAF275A0FF7C
:08003D007800E84400600A7934
:030045000075A0A3
:0600480000E4F309D8FCFE
:08004E007800E84400600C7921
:0B00560000900000E4F0A3D8FCD9FAF1
:03000800758115EA
:0A000B0012118CE58260030200036D
:0E11700020F71430F6148883A88220F507E6D5
:06117E00A8837583002226
:03118400E280F70F
:03118700E49322CC
:02118A00E02261
:04118C007582002246
:00000001FF
