:03000000020008F3
:0D00610090410074A3F09041017410F090E4
:0C006E004102746BF09041037483F09029
:0C007A004104747CF09041057440F0904B
:0C008600410674BFF090410774B2F09086
:0C00920041087454F09041097428F0906B
:0C009E00410A7420F090410B744DF0906A
:0C00AA00410C74B2F090410D74D4F09041
:0C00B600410E74F8F090410F74A6F09019
:0C00C200411074E5F090411174B7F0900B
:0C00CE0041127451F090411374BAF0908C
:0C00DA00411474E8F090411574D1F090CE
:0C00E60041167495F0904117749AF09048
:0C00F200411874FEF090411974ABF090BE
:0C00FE00411A740AF090411B7448F09005
:0C010A00411C7423F090411D74A2F09081
:0C011600411E7470F090411F74B3F09013
:0C012200412074CCF0904121747BF090DF
:0C012E004122748FF09041237444F09043
:0C013A00412474F4F0904125745BF090B7
:0C01460041267453F09041277478F0902B
:0C0152004128747DF090412974E2F09087
:0C015E00412A74F2F090412B74AFF09035
:0C016A00412C74D2F090412D74BAF0903A
:0C017600412E7406F090412F740FF090A1
:0C018200413074EEF090413174A4F09014
:0C018E0041327437F09041337406F09059
:0C019A00413474E7F09041357404F0909B
:0C01A6004136742CF09041377490F090BA
:0C01B2004138743CF0904139748BF0909F
:0C01BE00413A74FDF090413B7454F09005
:0C01CA00413C74CDF090413D74B9F090C0
:0C01D600413E7494F090413F74ADF090F5
:0C01E20041407464F0904141748EF09034
:0C01EE0041427426F090414374DEF09012
:0C01FA004144748CF090414574C5F090B5
:0C02060041467433F09041477492F09030
:0C02120041487424F090414974EFF090D2
:0C021E00414A7476F090414B7434F0902B
:0C022A00414C74C4F090414D74B8F09049
:0C023600414E74ECF090414F74F1F090D8
:0C0242004150749AF09041517479F09092
:0C024E0041527461F09041537480F090B4
:0C025A00415474C1F090415574BCF09008
:0C0266004156746DF09041577403F09005
:0C02720041587449F09041597495F09087
:0C027E00415A7494F090415B74C8F090F9
:0C028A00415C746FF090415D7414F090C2
:0C029600415E74B0F090415F7416F0906F
:0C02A20041607414F09041617463F090AE
:0C02AE00416274D0F09041637494F090B1
:0C02BA00416474D9F09041657410F0901C
:0C02C6004166744BF09041677444F09066
:0C02D20041687403F090416974C2F09020
:0C02DE00416A74CCF090416B7404F09005
:0C02EA00416C7468F090416D7498F090C5
:0C02F600416E746CF090416F74D9F09070
:0C03020041707469F090417174C7F09074
:0C030E004172741AF0904173740FF0906B
:0C031A00417474C5F09041757439F09086
:0C0326004176745CF0904177746AF090AE
:0C0332004178745AF09041797467F090A3
:0C033E00417A740BF090417B7447F09002
:0C034A00417C74F4F090417D7477F090D9
:0C035600417E741EF090417F742BF090EB
:0C0362004080744BF09040817461F0907A
:0C036E00408274D1F090408374A8F0909D
:0C037A0040847405F09040857436F090CB
:0C038600408674B5F090408774E7F0905A
:0C039200408874C6F0904089746AF090B6
:0C039E00408A7409F090408B7448F09085
:0C03AA00408C74E1F090408D7409F090DC
:0C03B600408E749AF090408F7462F090BA
:0C03C2004090746CF090409174CCF0906E
:0C03CE00409274B9F09040937482F0905B
:0C03DA0040947401F09040957488F090FD
:0C03E600409674EDF09040977437F09052
:0C03F200409874C7F090409974DDF090C2
:0C03FE00409A74EBF090409B748CF090DF
:0C040A00409C74C1F090409D74F2F09092
:0C041600409E7496F090409F7483F0901C
:0C04220040A07419F09040A1745EF090AE
:0C042E0040A274D1F09040A3743FF09005
:0C043A0040A474F6F09040A57480F0908F
:0C04460040A67415F09040A774BBF09025
:0C04520040A874ACF09040A97460F090D9
:0C045E0040AA7427F09040AB7480F0902E
:0C046A0040AC7483F09040AD743CF09006
:0C04760040AE7425F09040AF749BF090F5
:0C04820040B074F1F09040B17489F0902B
:0C048E0040B274E3F09040B37478F0903A
:0C049A0040B47410F09040B5743DF09038
:0C04A60040B67453F09040B77421F09001
:0C04B20040B87416F09040B9744AF09005
:0C04BE0040BA74A3F09040BB740CF090A6
:0C04CA0040BC74ADF09040BD7464F09034
:0C04D60040BE74D2F09040BF7450F09013
:0C04E20040C074C2F09040C17410F09053
:0C04EE0040C27448F09040C37487F09046
:0C04FA0040C474DAF09040C574C2F09069
:0C05060040C674EBF09040C774F1F09018
:0C05120040C874FCF09040C9748FF09059
:0C051E0040CA74FFF09040CB74E5F090F0
:0C052A0040CC74CAF09040CD744DF090AD
:0C05360040CE74A9F09040CF7468F090A3
:0C05420040D074CDF09040D1743AF0909D
:0C054E0040D2747BF09040D37441F090D8
:0C055A0040D47483F09040D57453F090AE
:0C05660040D6745EF09040D774BBF0905B
:0C05720040D87444F09040D9748DF09093
:0C057E0040DA749AF09040DB7434F09086
:0C058A0040DC7486F09040DD74B3F0900B
:0C05960040DE7462F09040DF747FF09053
:0C05A20040E0749DF09040E17496F090F1
:0C05AE0040E274B0F09040E374ACF090B8
:0C05BA0040E474B1F09040E57430F09023
:0C05C60040E674CDF09040E77425F09002
:0C05D20040E87460F09040E974B0F090D4
:0C05DE0040EA7442F09040EB74C3F090CF
:0C05EA0040EC74E7F09040ED74B0F0902D
:0C05F60040EE74EDF09040EF74DAF090ED
:0C06020040F074B9F09040F17411F090D9
:0C060E0040F2747DF09040F3742CF090EA
:0C061A0040F47427F09040F574F6F09066
:0C06260040F6748CF09040F774D8F0900F
:0C06320040F874AAF09040F9743BF0907E
:0C063E0040FA74E7F09040FB744FF0901D
:0C064A0040FC7486F09040FD741FF0909E
:0C06560040FE7496F09040FF742EF0906F
:0C0662004200745DF090420174EFF090D3
:0C066E0042027494F0904203747CF090FF
:0C067A0042047483F090420574BFF090BD
:0C06860042067440F0904207744DF09062
:0C069200420874ABF090420974D7F0905D
:0C069E00420A74DFF090420B74B2F0903E
:0C06AA00420C744DF090420D742BF09047
:0C06B600420E7407F090420F7459F0904F
:0C06C2004210741AF09042117448F0903D
:0C06CE00421274AEF09042137445F0909C
:0C06DA0042147417F0904215742EF0903A
:0C06E6004216746AF09042177465F090A0
:0C06F20042187401F09042197454F0900A
:0C06FE00421A74F5F090421B74B7F090A3
:0C070A00421C74DCF090421D745DF09005
:0C071600421E748FF090421F744CF09053
:0C07220042207433F09042217484F09067
:0C072E0042227470F090422374BBF090E3
:0C073A004224740BF090422574A4F0904F
:0C074600422674ACF09042277487F090BB
:0C07520042287482F0904229741DF0903F
:0C075E00422A740DF090422B7450F09071
:0C076A00422C742DF090422D7445F0904C
:0C077600422E74F9F090422F74F0F090C5
:0C07820042307411F0904231745BF09032
:0C078E00423274C8F090423374F9F090CD
:0C079A0042347418F090423574FBF0906B
:0C07A600423674D3F0904237746FF0902C
:0C07B200423874C3F09042397474F09027
:0C07BE00423A7402F090423B74ABF090A1
:0C07CA00423C7432F090423D7446F090C6
:0C07D600423E746BF090423F7452F09071
:0C07E2004240749BF09042417471F09012
:0C07EE00424274D9F09042437421F09014
:0C07FA0042447473F0904245743AF09051
:0C080600424674CCF0904247746DF090B4
:0C081200424874DBF09042497410F090F2
:0C081E00424A7489F090424B74CBF09079
:0C082A00424C743BF090424D7447F0903B
:0C083600424E7413F090424F740EF0908C
:0C08420042507465F09042517486F090B2
:0C084E004252749EF0904253747FF09070
:0C085A004254743EF09042557443F090FC
:0C08660042567492F090425774FCF090DF
:0C087200425874B6F0904259746AF0903D
:0C087E00425A746BF090425B7437F090AB
:0C088A00425C7490F090425D74EBF090C2
:0C089600425E744FF090425F74E9F090F5
:0C08A200426074EBF0904261749CF09096
:0C08AE004262742FF0904263746BF09073
:0C08BA0042647426F090426574EFF090E8
:0C08C600426674B4F090426774BBF0907E
:0C08D200426874FCF0904269743DF090A4
:0C08DE00426A7433F090426B74FBF0909F
:0C08EA00426C7497F090426D7467F090BF
:0C08F600426E7493F090426F7426F090F4
:0C09020042707496F09042717438F090CE
:0C090E00427274E5F090427374F0F090B7
:0C091A004274743AF090427574C6F0907C
:0C092600427674A3F09042777495F09034
:0C093200427874A5F09042797498F0901F
:0C093E00427A74F4F090427B74B8F090A0
:0C094A00427C740BF090427D7488F090A9
:0C095600427E74E1F090427F74D4F09077
:0C09620040007489F09040017415F09082
:0C096E0040027430F09040037441F0909F
:0C097A004004743EF0904005747FF09043
:0C098600400674EFF09040077415F090EC
:0C099200400874E4F09040097459F090A3
:0C099E00400A7432F090400B74AFF090EF
:0C09AA00400C74B2F090400D746DF090A1
:0C09B600400E7461F090400F7415F0903A
:0C09C200401074ACF09040117453F090A1
:0C09CE0040127486F090401374BAF09050
:0C09DA00401474CBF090401574C2F090F3
:0C09E600401674CEF09040177420F09082
:0C09F200401874DBF0904019745BF0902A
:0C09FE00401A74E6F090401B74EEF0907C
:0C0A0A00401C74D5F090401D7402F09068
:0C0A1600401E748CF090401F74EAF090B9
:0C0A2200402074D5F09040217470F090DA
:0C0A2E004022740CF090402374BCF09047
:0C0A3A0040247450F090402574BDF090F2
:0C0A4600402674C2F0904027747AF090B3
:0C0A520040287407F090402974F6F090E2
:0C0A5E00402A74BBF090402B743CF090D8
:0B0A6A00402CE4F090402D7438F09018
:0C0A7500402E7406F090402F7424F09086
:0C0A810040307470F09040317495F0909B
:0C0A8D00403274E1F09040337472F0903D
:0C0A99004034745BF090403574DCF09049
:0C0AA500403674D6F090403774CEF090CC
:0C0AB1004038742DF09040397416F0901D
:0C0ABD00403A7491F090403B7445F0907A
:0C0AC900403C74BEF090403D74AEF090D4
:0C0AD500403E7408F090403F747CF090AC
:0C0AE10040407464F090404174D8F090E4
:0C0AED00404274F1F090404374A0F0907F
:0C0AF900404474B2F09040457493F090BB
:0C0B050040467482F0904047742DF09040
:0C0B1100404874F5F090404974E0F0900A
:0C0B1D00404A74C5F090404B7483F09087
:0C0B2900404C74B3F090404D741BF090F1
:0C0B3500404E74B2F090404F7402F090FB
:0C0B410040507403F09040517408F09094
:0C0B4D004052749EF09040537401F090F0
:0C0B590040547416F0904055745BF0900E
:0C0B650040567449F090405774A9F0907D
:0C0B71004058744DF09040597482F09090
:0C0B7D00405A74C6F090405B742EF0905B
:0C0B8900405C7415F090405D7488F090A2
:0C0B9500405E745CF090405F74DDF090F6
:0C0BA1004060742FF09040617439F090B7
:0C0BAD00406274B1F0904063745BF09003
:0C0BB900406474BAF0904065744CF090F9
:0C0BC5004066742AF0904067749CF09029
:0C0BD10040687484F090406974E2F09079
:0C0BDD00406A74ADF090406B74B0F09072
:0C0BE900406C74B3F090406D74F5F09017
:0C0BF500406E74D7F090406F7447F09091
:0C0C0100407074C0F09040717424F090BA
:0C0C0D004072746FF090407374FBF09024
:0C0C1900407474A3F09040757441F0909A
:0C0C2500407674F4F09040777453F09027
:0C0C31004078742DF090407974C5F0906C
:0C0C3D00407A748EF090407B7465F0905B
:0C0C4900407C7489F090407D74DFF090D6
:0C0C5500407E74CEF090407F74B9F090A7
:0C0C610041807401F09041817401F0901A
:0C0C6D00028074A1F09002817480F0906D
:0C0C790002827448F09002837428F0900E
:0C0C8500028474C3F090028574FEF090AD
:0C0C910002867404F090028774B3F090A7
:0C0C9D00028874F2F090028974EFF0906D
:0C0CA900028A74AFF090028B743EF09051
:0C0CB500028C7455F090028D7446F09093
:0C0CC100028E744EF090028F74C8F09008
:0C0CCD0002907447F0900291747AF0904D
:0C0CD9000292741CF09002937483F0905F
:0C0CE50002947474F090029574D7F090A3
:0C0CF10002967411F090029774D1F090FC
:0C0CFD00029874FBF09002997416F090BD
:0C0D0900029A7444F090029B7472F09007
:0C0D1500029C748CF090029D744BF090D6
:0C0D2100029E74D5F090029F74FDF090CB
:0C0D2D0002A074B9F09002A174FAF090DA
:0C0D390002A27404F09002A374E1F09098
:0C0D450002A4743EF09002A5743AF090F5
:0C0D510002A67416F09002A77404F09043
:0C0D5D0002A87455F09002A97441F090B7
:0C0D690002AA74D0F09002AB748AF090E3
:0C0D750002AC7492F09002AD7438F09063
:0C0D810002AE74F4F09002AF74D4F09055
:0C0D8D0002B074AEF09002B1747AF090E5
:0C0D990002B27460F09002B374E2F090BB
:0C0DA50002B47469F09002B574AAF090DA
:0C0DB10002B674A6F09002B77463F090D4
:0C0DBD0002B874A1F09002B974EBF09041
:0C0DC90002BA7405F09002BB7471F09047
:0C0DD50002BC7499F09002BD7471F090A3
:0C0DE10002BE74E3F09002BF7467F09053
:0C0DED0002C0742AF09002C17457F0900C
:0C0DF90002C274F7F09002C3746BF0901B
:0C0E050002C47482F09002C574B3F09037
:0C0E110002C674F0F09002C77482F090EA
:0C0E1D0002C87458F09002C97454F090A0
:0C0E290002CA74AFF09002CB74C3F090CA
:0C0E350002CC74D1F09002CD74EFF0906C
:0C0E410002CE7468F09002CF747EF09036
:0C0E4D0002D07488F09002D174BDF090C7
:0C0E590002D27439F09002D3742BF09098
:0C0E650002D4742AF09002D5747CF09046
:0C0E710002D67414F09002D774F8F090D0
:0C0E7D0002D874C7F09002D974D0F09035
:0C0E890002DA74F9F09002DB7464F0905F
:0C0E950002DC749AF09002DD74BAF09058
:0C0EA10002DE746FF09002DF7445F090E8
:0C0EAD0002E07428F09002E1745DF09007
:0C0EB90002E274D7F09002E374E2F090C3
:0C0EC50002E474C4F09002E5748EF0901A
:0C0ED10002E6749FF09002E7746FF0904E
:0C0EDD0002E874A8F09002E97488F0901C
:0C0EE90002EA74ADF09002EB74FDF09092
:0C0EF50002EC7428F09002ED7492F09072
:0C0F010002EE744FF09002EF7463F09069
:0C0F0D0002F07441F09002F17470F0905A
:0C0F190002F27422F09002F374ADF0902C
:0C0F250002F474ABF09002F5744EF090F2
:0C0F310002F6741DF09002F77463F0905B
:0C0F3D0002F87489F09002F974CCF09076
:0C0F490002FA7409F09002FB7442F09070
:0C0F550002FC74FEF09002FD74BCF090F1
:0B0F610002FE74CFF09002FF743AF023
:030F6C000200037D
:05000300120F9980FEC0
:090F6F0075900075800175800089
:080F7800E59060FC7580042285
:030F800075800376
:0B0F8300E59060FC7580047580002282
:070F8E00758002758000224E
:040F950075B05522BC
:070F9900120F6F120F8E1200
:0C0FA0000F80759000120F959000002249
:06003700E478FFF6D8FD9D
:080015007900E94400601B7A48
:05001D0000900FB07817
:030022000075A0C6
:0A00250000E493F2A308B8000205FE
:08002F00A0D9F4DAF275A0FF7C
:08003D007800E84400600A7934
:030045000075A0A3
:0600480000E4F309D8FCFE
:08004E007800E84400600C7921
:0B00560000900000E4F0A3D8FCD9FAF1
:03000800758109F6
:0A000B00120FACE58260030200034F
:040FAC007582002228
:00000001FF
