:03000000020008F3
:07006100E4F508F509E4F5E0
:050068000AF50BE4F5B0
:04006D000CF50D750C
:060071000E00E4F50FF59E
:080077001090000074D3F0901A
:0C007F0000017455F090000274A4F09091
:0C008B000003745FF09000047457F090C4
:0C009700000574F3F090000674F9F0907E
:0C00A3000007743EF090000874CFF0904D
:0C00AF0000097484F090000A746DF09059
:0C00BB00000B74FFF090000C7420F0901B
:0C00C700000D74C1F090000E74AEF090BB
:0C00D300000F7412F090001074CFF09039
:0B00DF00001174F1F0900012E4F090AA
:0C00EA0000137466F09000147445F09050
:0C00F600001574E2F09000167434F090D5
:0C01020000177461F09000187427F09052
:0C010E00001974F2F090001A7457F09081
:0C011A00001B74B3F090001C7442F090C5
:0C012600001D7421F090001E7480F09009
:0C013200001F7495F090002074ABF0905A
:0C013E0000217415F090002274A2F090D3
:0C014A000023741DF09000247453F0900A
:0C015600002574B2F09000267427F09091
:0C016200002774E6F09000287456F0901E
:0C016E0000297493F090002A7427F09090
:0C017A00002B74AFF090002C74C2F090C9
:0C018600002D74EEF090002E742BF09011
:0C019200002F742FF0900030749AF09051
:0C019E00003174AEF0900032746AF090F2
:0C01AA0000337409F090003474E5F0900C
:0C01B6000035747FF090003674AEF090BD
:0C01C2000037747DF0900038742BF09032
:0C01CE00003974DDF090003A7458F09095
:0C01DA00003B742FF090003C7487F09004
:0C01E600003D7470F090003E7405F09035
:0C01F200003F741FF090004074F8F09083
:0C01FE00004174BDF0900042740BF090C2
:0C020A00004374E0F090004474FDF0909C
:0C021600004574F1F09000467481F090F7
:0C02220000477460F090004874BFF0903A
:0C022E00004974D2F090004A74FEF09079
:0C023A00004B748FF090004C747BF0902F
:0C024600004D74B9F090004E74A9F090C7
:0C025200004F74A4F0900050746AF0900B
:0C025E000051740AF090005274A3F0905C
:0C026A00005374A3F09000547470F090E6
:0C02760000557422F090005674BFF09008
:0C0282000057744CF0900058741BF09072
:0C028E00005974B0F090005A7441F090D8
:0C029A00005B7424F090005C744CF09049
:0C02A600005D743AF090005E7408F09067
:0C02B200005F74ECF090006074F4F090B9
:0C02BE0000617491F090006274FFF090F9
:0C02CA0000637493F0900064748DF09059
:0C02D600006574FCF090006674FAF09073
:0C02E2000067744CF09000687426F090E7
:0C02EE000069742DF090006A74D2F0904A
:0C02FA00006B74E9F090006C74FCF09054
:0C030600006D7476F090006E74B1F09001
:0C031200006F7467F0900070745EF09053
:0C031E0000717424F0900072749EF09046
:0C032A0000737431F09000747466F09061
:0C0336000075745DF09000767498F090F3
:0C0342000077744CF0900078740DF0907F
:0C034E0000797479F090007A7481F090CE
:0C035A00007B7476F090007C74ACF09096
:0C036600007D741DF090007E74E2F090A9
:0C037200007F74CAF090010074FFF0904E
:0C037E000101747FF09001027414F090F3
:0C038A0001037464F09001047447F090CB
:0C03960001057468F090010674C2F0903C
:0C03A200010774B6F09001087427F09079
:0C03AE0001097432F090010A7463F090B1
:0C03BA00010B742CF090010C74B0F0905A
:0C03C600010D74C3F090010E7495F090CE
:0C03D200010F7413F090011074C5F0903E
:0C03DE000111747EF09001127417F09071
:0C03EA0001137422F090011474F3F090E1
:0C03F6000115747CF0900116742DF0903D
:0C040200011774E8F09001187413F090DA
:0C040E0001197447F090011A745EF09020
:0C041A00011B7415F090011C744EF09052
:0C042600011D74EFF090011E7483F09033
:0C043200011F7481F090012074DFF09035
:0C043E00012174C3F09001227447F0907B
:0C044A00012374D3F09001247460F09042
:0C045600012574BBF0900126748BF0901F
:0C0462000127743EF090012874B6F09061
:0C046E0001297435F090012A74B1F0905F
:0C047A00012B746EF090012C74D1F090F6
:0C048600012D74D5F090012E74DAF09076
:0C049200012F746FF09001307428F0907E
:0C049E0001317416F0900132742CF090C3
:0C04AA0001337474F09001347436F0904B
:0C04B600013574F9F09001367404F090E8
:0C04C20001377479F090013874F9F09063
:0C04CE0001397476F090013A74E2F0906D
:0C04DA00013B74CCF090013C74A4F09045
:0C04E600013D7482F090013E74A7F0907C
:0C04F200013F74A4F09001407468F09089
:0C04FE000141744EF09001427424F09013
:0C050A00014374A6F090014474C1F0900D
:0C05160001457458F09001467468F090A4
:0C05220001477424F09001487458F090D8
:0C052E00014974DCF090014A7414F09054
:0C053A00014B74F9F090014C74FFF0903C
:0C054600014D744DF090014E74A1F09036
:0C055200014F74EFF09001507453F090D2
:0C055E00015174A3F090015274C2F0909F
:0C056A0001537484F0900154741BF09055
:0C05760001557481F09001567416F0904D
:0C0582000157746CF090015874DDF0908B
:0C058E00015974E3F090015A74DBF09006
:0C059A00015B74A8F090015C7403F09009
:0C05A600015D748FF090015E74F2F09023
:0C05B200015F7431F090016074FDF09066
:0C05BE0001617494F0900162745DF09093
:0C05CA0001637426F09001647413F0903B
:0C05D600016574C6F09001667468F09036
:0C05E200016774B4F0900168740DF09093
:0C05EE00016974CDF090016A74F1F09086
:0C05FA00016B74B8F090016C7466F09016
:0C060600016D740DF090016E745DF090B9
:0C061200016F743BF0900170742FF090A9
:0C061E00017174C4F0900172744AF090F5
:0C062A00017374D1F0900174740BF09017
:0C06360001757436F090017674C6F090E7
:0C06420001777410F0900178741AF090A9
:0C064E000179742FF090017A7472F09022
:0C065A00017B74D1F090017C74BBF09027
:0C066600017D7415F090017E7429F09065
:0C067200017F74CAF090020074E1F09067
:0C067E000201748AF09002027403F090F4
:0C068A00020374DBF090020474E0F090B6
:0C069600020574D9F090020674F6F09092
:0C06A20002077455F090020874B6F09046
:0C06AE0002097427F090020A740AF09010
:0C06BA00020B7428F090020C74F0F09019
:0C06C600020D745EF090020E7474F0904F
:0C06D200020F747FF090021074E6F090AC
:0C06DE000211749FF0900212744CF09016
:0C06EA00021374FBF09002147426F090D0
:0C06F6000215748CF0900216749EF090B7
:0C07020002177487F09002187483F090C6
:0C070E0002197422F090021A74F2F090AC
:0C071A00021B7475F090021C74D2F09069
:0C072600021D74B3F090021E7461F0908C
:0C073200021F74A2F0900220749DF09051
:0C073E0002217450F09002227471F090BF
:0C074A000223745EF090022474C9F09049
:0C075600022574DDF090022674DDF090A6
:0C07620002277474F0900228740AF090D2
:0C076E000229743CF090022A74C0F09044
:0C077A00022B7430F090022C743EF090C2
:0C078600022D74E5F090022E7420F0901B
:0C079200022F7402F090023074B3F0905B
:0C079E0002317412F0900232744FF0909F
:0C07AA00023374ABF09002347460F090E5
:0C07B60002357427F09002367407F090B2
:0C07C20002377417F090023874DDF090DC
:0B07CE000239E4F090023A74C2F0908F
:0C07D900023B74E1F090023C74BCF09014
:0C07E500023D7404F090023E74AEF090EF
:0C07F100023F7421F09002407438F09038
:0C07FD00024174CAF090024274AAF0900D
:0C0809000243748FF09002447474F0906D
:0C081500024574D5F09002467402F09089
:0C08210002477410F09002487415F0902B
:0C082D0002497487F090024A7458F09061
:0C083900024B7408F090024C74CCF0905C
:0C084500024D749AF090024E7442F09044
:0C085100024F74BDF09002507402F09051
:0C085D0002517497F090025274CEF0909B
:0C0869000253742BF09002547439F0908C
:0C08750002557438F09002567499F0900F
:0C088100025774ACF09002587481F090A3
:0C088D00025974BBF090025A74C3F09042
:0C089900025B74FFF090025C74BCF090F5
:0C08A500025D74C1F090025E74B8F09027
:0C08B100025F74E1F09002607424F0908B
:0C08BD000261748DF090026274C5F0902E
:0C08C90002637420F09002647489F090C7
:0C08D50002657498F0900266740BF090BD
:0C08E10002677450F090026874B1F0904F
:0C08ED0002697416F090026A749AF09090
:0C08F900026B742DF090026C746EF09095
:0C090500026D745AF090026E747BF0904A
:0C091100026F742FF090027074D4F0900C
:0C091D0002717492F090027274A1F090CC
:0C092900027374AAF090027474A6F0909F
:0C093500027574E5F090027674A6F09054
:0C094100027774D2F0900278740DF090F0
:0C094D000279740BF090027A74B7F090FD
:0C095900027B74B2F090027C7425F090D8
:0C096500027D7423F090027E7423F09059
:05097100027F74BEF0DE
:0309760002000379
:0500030012097980FEE6
:0C09790090FFFE7401F085008275830081
:0B098500E0FA850082758302E0FB8928
:0809900011C01175820075838E
:0909980001E0F5F0EBA42508F5DF
:0609A10008E5F0350FF53A
:0509A7000FE43510F51E
:0A09AC001074A58508F0A4F9758207
:0C09B60000758303E9F08AF0EBA425082B
:0709C200F508E5F03508F52A
:0509C90008E43509F50A
:0309CE000985098F
:0509D1000F751000D0BD
:0409D60011A91175DD
:0509DA000A7FE4F50BAB
:0509DF008911C0117533
:0209E4000C0005
:0A09E600850C82758301E0F5F0E551
:0809F0000AC3950CF582758322
:0609F80002E0A42508F551
:0609FE0008E5F0350FF5DD
:050A04000FE43510F5C0
:0A0A090010850C82758303E0F5F000
:090A1300E50AC3950CF582758318
:060A1C0000E0A42508F52E
:060A220008E5F0350FF5B8
:050A28000FE43510F59C
:040A2D0010E50A05C1
:060A31000C950C70B0856D
:0A0A37000A82758301E0F5F0EBA4DC
:070A41002508F508E5F0357A
:050A48000FF50FE4357D
:060A4D0010F51074A585F0
:0A0A530008F0A4F9850A82758303F8
:0A0A5D00E9F08AF0EBA42508F50883
:080A6700E5F03508F508E4355F
:040A6F0009F50985F7
:030A7300090F75F3
:050A76001000D011A9E1
:060A7B0011150A74FFB51D
:040A81000A02150B45
:070A8500E50A450B600302C6
:020A8C0009DF80
:060A8E00750A80E4F50B7F
:090A940074FF250B5003020B1A3C
:070A9D00E50A948004F50C4A
:0A0AA400850C82758301E0F5F0E592
:080AAE000AC3950CF582758363
:060AB60002E0A42508F592
:060ABC0008E5F0350FF51E
:050AC2000FE43510F502
:0A0AC70010850C82758303E0F5F042
:090AD100E50AC3950CF58275835A
:060ADA0000E0A42508F570
:060AE00008E5F0350FF5FA
:050AE6000FE43510F5DE
:060AEB00107480050C955B
:0A0AF1000C70B0E50A2480F582E4E1
:0A0AFB003403F583E508F0AA0F8A22
:050B05000875090085E0
:030B0A00100F7554
:060B0D001000050AE4B52A
:040B13000A02050BC2
:030B1700020A943B
:0C0B1A00AA08900380EAF0900300E0FAC3
:0A0B26007B00AC127D00EAC39CF5D1
:070B300008EB9DF509E4F557
:030B37000AF50BB1
:0A0B3A00C3E50A9480E50B94005017
:0A0B440045850A827403250BF58332
:0A0B4E00E0FA7B00850A827400259E
:0C0B58000BF583E0FC7D00EAC39CFAEB87
:0A0B64009DFBAC097D00EAC39CF57F
:060B6E0008EB9DF509856E
:090B74000A827404250BF583E5E7
:070B7D0008FAF0050AE4B5D7
:060B84000AB4050B80B06D
:0A0B8A00AA097B00EA4B7030F50A5F
:020B9400F50B5F
:0A0B9600C3E50A9480E50B940050BB
:090BA00021AA0A7403250BFB8550
:0A0BA9000A827404250BF583E0FCBA
:0A0BB3008A828B83F0050AE4B50A7C
:050BBD00D8050B80D4F7
:0A0BC20090FFFF7401F09000002284
:06003700E478FFF6D8FD9D
:080015007900E94400601B7A48
:05001D0000900BD078FB
:030022000075A0C6
:0A00250000E493F2A308B8000205FE
:08002F00A0D9F4DAF275A0FF7C
:08003D007800E84400600A7934
:030045000075A0A3
:0600480000E4F309D8FCFE
:08004E007800E84400600C7921
:0B00560000900000E4F0A3D8FCD9FAF1
:03000800758113EC
:0A000B00120BCCE582600302000333
:040BCC00758200220C
:00000001FF
