:03000000020008F3
:0D00610090000074D3F09000017455F090F1
:0C006E00000274A4F0900003745FF09096
:0C007A0000047457F090000574F3F0903F
:0C008600000674F9F0900007743EF09042
:0C009200000874CFF09000097484F09016
:0C009E00000A746DF090000B74FFF090ED
:0C00AA00000C7420F090000D74C1F09068
:0C00B600000E74AEF090000F7412F09079
:0C00C200001074CFF090001174F1F09069
:0B00CE000012E4F09000137466F09044
:0C00D90000147445F090001574E2F090E3
:0C00E50000167434F09000177461F09065
:0C00F10000187427F090001974F2F090D1
:0C00FD00001A7457F090001B74B3F090D0
:0C010900001C7442F090001D7421F09066
:0C011500001E7480F090001F7495F090A4
:0C012100002074ABF09000217415F090E9
:0C012D00002274A2F0900023741DF090DA
:0C01390000247453F090002574B2F09084
:0C01450000267427F090002774E6F0906C
:0C01510000287456F09000297493F09080
:0C015D00002A7427F090002B74AFF09083
:0C016900002C74C2F090002D74EEF09099
:0C017500002E742BF090002F742FF090DF
:0C0181000030749AF090003174AEF090E1
:0C018D000032746AF09000337409F090A6
:0C019900003474E5F0900035747FF090A5
:0C01A500003674AEF0900037747DF090CE
:0C01B1000038742BF090003974DDF090E1
:0C01BD00003A7458F090003B742FF09052
:0C01C900003C7487F090003D7470F090D2
:0C01D500003E7405F090003F741FF09095
:0C01E100004074F8F090004174BDF090F4
:0C01ED000042740BF090004374E0F090AE
:0C01F900004474FDF090004574F1F0909B
:0C02050000467481F09000477460F09097
:0C021100004874BFF090004974D2F090D7
:0C021D00004A74FEF090004B748FF090CB
:0C022900004C747BF090004D74B9F09014
:0C023500004E74A9F090004F74A4F090EB
:0C0241000050746AF0900051740AF090B4
:0C024D00005274A3F090005374A3F090D2
:0C02590000547470F09000557422F09076
:0C026500005674BFF0900057744CF090ED
:0C0271000058741BF090005974B0F0901D
:0C027D00005A7441F090005B7424F09073
:0C028900005C744CF090005D743AF09042
:0C029500005E7408F090005F74ECF090C4
:0C02A100006074F4F09000617491F09023
:0C02AD00006274FFF09000637493F09006
:0C02B9000064748DF090006574FCF090FF
:0C02C500006674FAF0900067744CF09032
:0C02D10000687426F0900069742DF09015
:0C02DD00006A74D2F090006B74E9F0909D
:0C02E900006C74FCF090006D7476F090D6
:0C02F500006E74B1F090006F7467F09020
:0C0301000070745EF09000717424F090A5
:0C030D000072749EF09000737431F09048
:0C03190000747466F0900075745DF09044
:0C03250000767498F0900077744CF09013
:0C0331000078740DF09000797479F09061
:0C033D00007A7481F090007B7476F090E0
:0C034900007C74ACF090007D741DF090FE
:0C035500007E74E2F090007F74CAF0900B
:0C036100008074FFF0900081747FF09029
:0C036D0000827414F09000837464F0901F
:0C03790000847447F09000857468F090D8
:0C038500008674C2F090008774B6F090FF
:0C03910000887427F09000897432F0900E
:0C039D00008A7463F090008B742CF090C8
:0C03A900008C74B0F090008D74C3F090D4
:0C03B500008E7495F090008F7413F0908F
:0C03C100009074C5F0900091747EF090E4
:0C03CD0000927417F09000937422F090DE
:0C03D900009474F3F0900095747CF09098
:0C03E5000096742DF090009774E8F090E2
:0C03F10000987413F09000997447F0908D
:0C03FD00009A745EF090009B7415F09064
:0C040900009C744EF090009D74EFF09089
:0C041500009E7483F090009F7481F090B2
:0C04210000A074DFF09000A174C3F09004
:0C042D0000A27447F09000A374D3F0907C
:0C04390000A47460F09000A574BBF0906B
:0C04450000A6748BF09000A7743EF090AD
:0C04510000A874B6F09000A97435F0907B
:0C045D0000AA74B1F09000AB746EF09037
:0C04690000AC74D1F09000AD74D5F090A0
:0C04750000AE74DAF09000AF746FF090ED
:0C04810000B07428F09000B17416F090E8
:0C048D0000B2742CF09000B37474F09076
:0C04990000B47436F09000B574F9F090D7
:0C04A50000B67404F09000B77479F09079
:0C04B10000B874F9F09000B97476F09077
:0C04BD0000BA74E2F09000BB74CCF09028
:0C04C90000BC74A4F09000BD7482F090A0
:0C04D50000BE74A7F09000BF74A4F0906B
:0C04E10000C07468F09000C1744EF090F0
:0C04ED0000C27424F09000C374A6F090CC
:0C04F90000C474C1F09000C57458F0906D
:0C05050000C67468F09000C77424F090E9
:0C05110000C87458F09000C974DCF09031
:0C051D0000CA7414F09000CB74F9F09048
:0C05290000CC74FFF09000CD744DF090F9
:0C05350000CE74A1F09000CF74EFF090A5
:0C05410000D07453F09000D174A3F0902F
:0C054D0000D274C2F09000D37484F090CF
:0C05590000D4741BF09000D57481F09069
:0C05650000D67416F09000D7746CF09073
:0C05710000D874DDF09000D974E3F09025
:0C057D0000DA74DBF09000DB74A8F09052
:0C05890000DC7403F09000DD748FF09033
:0C05950000DE74F2F09000DF7431F09092
:0C05A10000E074FDF09000E17494F09014
:0C05AD0000E2745DF09000E37426F09012
:0C05B90000E47413F09000E574C6F090AC
:0C05C50000E67468F09000E774B4F09059
:0C05D10000E8740DF09000E974CDF0908B
:0C05DD0000EA74F1F09000EB74B8F090AC
:0C05E90000EC7466F09000ED740DF090D2
:0C05F50000EE745DF09000EF743BF0909D
:0C06010000F0742FF09000F174C4F09031
:0C060D0000F2744AF09000F374D1F090F9
:0C06190000F4740BF09000F57436F090C3
:0C06250000F674C6F09000F77410F0901E
:0C06310000F8741AF09000F9742FF0909B
:0C063D0000FA7472F09000FB74D1F09091
:0C06490000FC74BBF09000FD7415F090F4
:0C06550000FE7429F09000FF74CAF090C1
:0C066100010074E1F0900101748AF09037
:0C066D0001027403F090010374DBF090B4
:0C067900010474E0F090010574D9F090C9
:0C068500010674F6F09001077455F09027
:0C069100010874B6F09001097427F09085
:0C069D00010A740AF090010B7428F09020
:0C06A900010C74F0F090010D745EF090F4
:0C06B500010E7474F090010F747FF0903F
:0C06C100011074E6F0900111749FF0909D
:0C06CD000112744CF090011374FBF090CB
:0C06D90001147426F0900115748CF09050
:0C06E5000116749EF09001177487F090CD
:0C06F10001187483F09001197422F0903D
:0C06FD00011A74F2F090011B7475F0906B
:0C070900011C74D2F090011D74B3F0903C
:0C071500011E7461F090011F74A2F090AE
:0C0721000120749DF09001217450F090B4
:0C072D0001227471F0900123745EF090C2
:0C073900012474C9F090012574DDF090DB
:0C074500012674DDF09001277474F09020
:0C0751000128740AF0900129743CF0901B
:0C075D00012A74C0F090012B7430F09061
:0C076900012C743EF090012D74E5F0901E
:0C077500012E7420F090012F7402F0900F
:0C078100013074B3F09001317412F0905C
:0C078D000132744FF090013374ABF09017
:0C07990001347460F09001357427F0907A
:0C07A50001367407F09001377417F090D3
:0B07B100013874DDF0900139E4F09095
:0C07BC00013A74C2F090013B74E1F0902F
:0C07C800013C74BCF090013D7404F09002
:0C07D400013E74AEF090013F7421F090E3
:0C07E00001407438F090014174CAF090A0
:0C07EC00014274AAF0900143748FF09059
:0C07F80001447474F090014574D5F09039
:0C08040001467402F09001477410F0905F
:0C08100001487415F09001497487F090C5
:0C081C00014A7458F090014B7408F090F1
:0C082800014C74CCF090014D749AF090DB
:0C083400014E7442F090014F74BDF09032
:0C08400001507402F09001517497F09088
:0C084C00015274CEF0900153742BF09018
:0C08580001547439F09001557438F09090
:0C08640001567499F090015774ACF090AC
:0C08700001587481F090015974BBF090A5
:0C087C00015A74C3F090015B74FFF0900F
:0C088800015C74BCF090015D74C1F09044
:0C089400015E74B8F090015F74E1F09018
:0C08A00001607424F0900161748DF090F0
:0C08AC00016274C5F09001637420F090AC
:0C08B80001647489F09001657498F09060
:0C08C4000166740BF09001677450F09016
:0C08D000016874B1F09001697416F0909A
:0C08DC00016A749AF090016B742DF0908A
:0C08E800016C746EF090016D745AF09079
:0C08F400016E747BF090016F742FF09087
:0C090000017074D4F09001717492F090BA
:0C090C00017274A1F090017374AAF090C5
:0C091800017474A6F090017574E5F09075
:0C092400017674A6F090017774D2F09078
:0C0930000178740DF0900179740BF090C8
:0C093C00017A74B7F090017B74B2F09067
:0C094800017C7425F090017D7423F09078
:0B095400017E7423F090017F74BEF060
:03095F0002000390
:0500030012096280FEFD
:0E09620090FFFE7401F012097590FFFF740102
:05097000F090000022E0
:08097500E4FAFBF50CF50D900E
:06097D000000E0F50E9001
:070983000100E0F50FE4F5AF
:03098A0008F50964
:0A098D00C3E5089480E509940040DA
:0409970003020A74D9
:05099B00E4F50AF50B74
:0609A000C3E50A9508E51D
:0609A6000B95094003025D
:0209AC000A1629
:0A09AE008A047D00E50A2480F5822A
:0909B800E50B3400F583E0F8A919
:0A09C10008AE0AE9C39EF9F582753D
:0C09CB008301E088F0A42CFAED35F07DEB
:0709D70000250CF50CED35C5
:0809DE000DF50D8A047D008572
:0A09E6000A827402250BF583E0FE7F
:0C09F0008982758300E0FF8EF0A42CFAD1
:0A09FC00ED35F0FBFBF8250CF50CBF
:060A0600E4350DF50D05BD
:060A0C000AE4B50A020530
:010A12000BD8
:030A13000209A035
:0A0A16008A047D00E5082480F582C3
:0A0A2000E5093400F583E0FE8EF0D6
:0A0A2A00E50FA42CFAED35F0FB25D2
:050A34000CF50CE43597
:0A0A39000DF50D8A04EC75F0A5A47C
:0A0A4300FD85088274022509F58381
:0C0A4D00EDF07E008DF0E50EA42CFAEE1A
:0A0A590035F0FBF8250CFAE4350D2A
:070A6300FB8B0C750D000573
:060A6A0008E4B5080205D6
:010A7000097C
:030A710002098DEA
:060A7400750880E4F5099D
:090A7A0074FF25095003020B234F
:0A0A830074812508FE74FF3509FF99
:0C0A8D00C3EE9480EF94004003020AFDC9
:0B0A99008A007900EE2480F582EF3423
:070AA40000F583E0F5118568
:050AAB0008108E05E5B6
:0A0AB00010C39DFDF582758301E07F
:0C0ABA008511F0A428FAE935F078002539
:050AC6000CF50CE83501
:0A0ACB000DF50D8A0478008E827488
:0C0AD500022FF583E0F98D82758300E0AC
:0C0AE100FD89F0A42CFAE835F0FBF825A4
:050AED000CF50CE435DE
:080AF2000DF50D0EBE00010F11
:030AFA00020A8D60
:0C0AFD00E5082480F582E43402F5838AC9
:0A0B090004ECF0AC0C8C027B0085BC
:030B13000D0C7551
:060B16000D000508E4B526
:040B1C0008020509BD
:030B2000020A7A4C
:0E0B23008A04900280ECF0900200E0FC7D005D
:0E0B3100900000E0FE7F00ECC39EFAED9FFBFB
:040B3F007C007D00B9
:0E0B4300C3EC9480ED9400503A8C8274022D25
:0C0B5100F583E0FE7F008C8274002DF51F
:0E0B5D0083E0F87900EEC398FEEF99FF8B005D
:0E0B6B007900EEC398FAEF99FB8C8274042D8A
:0D0B7900F5838A06EEF00CBC00C00D80BDB7
:0A0B86008B027B00EA4B7026FAFB9D
:0E0B9000C3EA9480EB9400501B8A0474022B7D
:0E0B9E00FD8A8274042BF583E0FE8C828D8329
:080BAC00F00ABA00DF0B80DC47
:010BB400221E
:06003700E478FFF6D8FD9D
:080015007900E94400601B7A48
:05001D0000900BB97812
:030022000075A0C6
:0A00250000E493F2A308B8000205FE
:08002F00A0D9F4DAF275A0FF7C
:08003D007800E84400600A7934
:030045000075A0A3
:0600480000E4F309D8FCFE
:08004E007800E84400600C7921
:0B00560000900000E4F0A3D8FCD9FAF1
:03000800758111EE
:0A000B00120BB5E58260030200034A
:040BB5007582002223
:00000001FF
