:03000000020008F3
:06006100E4F508F5097545
:070067000A00750B00E4F52F
:04006E000CF50D90F0
:0C0072000100745DF090010174EFF0904B
:0C007E0001027494F0900103747CF09077
:0C008A0001047483F090010574BFF09035
:0C00960001067440F0900107744DF090DA
:0C00A200010874ABF090010974D7F090D5
:0C00AE00010A74DFF090010B74B2F090B6
:0C00BA00010C744DF090010D742BF090BF
:0C00C600010E7407F090010F7459F090C7
:0C00D2000110741AF09001117448F090B5
:0C00DE00011274AEF09001137445F09014
:0C00EA0001147417F0900115742EF090B2
:0C00F6000116746AF09001177465F09018
:0C01020001187401F09001197454F09081
:0C010E00011A74F5F090011B74B7F0901A
:0C011A00011C74DCF090011D745DF0907D
:0C012600011E748FF090011F744CF090CB
:0C01320001207433F09001217484F090DF
:0C013E0001227470F090012374BBF0905B
:0C014A000124740BF090012574A4F090C7
:0C015600012674ACF09001277487F09033
:0C01620001287482F0900129741DF090B7
:0C016E00012A740DF090012B7450F090E9
:0C017A00012C742DF090012D7445F090C4
:0C018600012E74F9F090012F74F0F0903D
:0C01920001307411F0900131745BF090AA
:0C019E00013274C8F090013374F9F09045
:0C01AA0001347418F090013574FBF090E3
:0C01B600013674D3F0900137746FF090A4
:0C01C200013874C3F09001397474F0909F
:0C01CE00013A7402F090013B74ABF09019
:0C01DA00013C7432F090013D7446F0903E
:0C01E600013E746BF090013F7452F090E9
:0C01F2000140749BF09001417471F0908A
:0C01FE00014274D9F09001437421F0908C
:0C020A0001447473F0900145743AF090C8
:0C021600014674CCF0900147746DF0902C
:0C022200014874DBF09001497410F0906A
:0C022E00014A7489F090014B74CBF090F1
:0C023A00014C743BF090014D7447F090B3
:0C024600014E7413F090014F740EF09004
:0C02520001507465F09001517486F0902A
:0C025E000152749EF0900153747FF090E8
:0C026A000154743EF09001557443F09074
:0C02760001567492F090015774FCF09057
:0C028200015874B6F0900159746AF090B5
:0C028E00015A746BF090015B7437F09023
:0C029A00015C7490F090015D74EBF0903A
:0C02A600015E744FF090015F74E9F0906D
:0C02B200016074EBF0900161749CF0900E
:0C02BE000162742FF0900163746BF090EB
:0C02CA0001647426F090016574EFF09060
:0C02D600016674B4F090016774BBF090F6
:0C02E200016874FCF0900169743DF0901C
:0C02EE00016A7433F090016B74FBF09017
:0C02FA00016C7497F090016D7467F09037
:0C030600016E7493F090016F7426F0906B
:0C03120001707496F09001717438F09046
:0C031E00017274E5F090017374F0F0902F
:0C032A000174743AF090017574C6F090F4
:0C033600017674A3F09001777495F090AC
:0C034200017874A5F09001797498F09097
:0C034E00017A74F4F090017B74B8F09018
:0C035A00017C740BF090017D7488F09021
:0C036600017E74E1F090017F74D4F090EF
:0C037200020074A3F09002017410F090DF
:0C037E000202746BF09002037483F09094
:0C038A000204747CF09002057440F090B6
:0C039600020674BFF090020774B2F090F1
:0C03A20002087454F09002097428F090D6
:0C03AE00020A7420F090020B744DF090D5
:0C03BA00020C74B2F090020D74D4F090AC
:0C03C600020E74F8F090020F74A6F09084
:0C03D200021074E5F090021174B7F09076
:0C03DE0002127451F090021374BAF090F7
:0C03EA00021474E8F090021574D1F09039
:0C03F60002167495F0900217749AF090B3
:0C040200021874FEF090021974ABF09028
:0C040E00021A740AF090021B7448F0906F
:0C041A00021C7423F090021D74A2F090EC
:0C042600021E7470F090021F74B3F0907E
:0C043200022074CCF0900221747BF0904A
:0C043E000222748FF09002237444F090AE
:0C044A00022474F4F0900225745BF09022
:0C04560002267453F09002277478F09096
:0C0462000228747DF090022974E2F090F2
:0C046E00022A74F2F090022B74AFF090A0
:0C047A00022C74D2F090022D74BAF090A5
:0C048600022E7406F090022F740FF0900C
:0C049200023074EEF090023174A4F0907F
:0C049E0002327437F09002337406F090C4
:0C04AA00023474E7F09002357404F09006
:0C04B6000236742CF09002377490F09025
:0C04C2000238743CF0900239748BF0900A
:0C04CE00023A74FDF090023B7454F09070
:0C04DA00023C74CDF090023D74B9F0902B
:0C04E600023E7494F090023F74ADF09060
:0C04F20002407464F0900241748EF0909F
:0C04FE0002427426F090024374DEF0907D
:0C050A000244748CF090024574C5F0901F
:0C05160002467433F09002477492F0909B
:0C05220002487424F090024974EFF0903D
:0C052E00024A7476F090024B7434F09096
:0C053A00024C74C4F090024D74B8F090B4
:0C054600024E74ECF090024F74F1F09043
:0C0552000250749AF09002517479F090FD
:0C055E0002527461F09002537480F0901F
:0C056A00025474C1F090025574BCF09073
:0C0576000256746DF09002577403F09070
:0C05820002587449F09002597495F090F2
:0C058E00025A7494F090025B74C8F09064
:0C059A00025C746FF090025D7414F0902D
:0C05A600025E74B0F090025F7416F090DA
:0C05B20002607414F09002617463F09019
:0C05BE00026274D0F09002637494F0901C
:0C05CA00026474D9F09002657410F09087
:0C05D6000266744BF09002677444F090D1
:0C05E20002687403F090026974C2F0908B
:0C05EE00026A74CCF090026B7404F09070
:0C05FA00026C7468F090026D7498F09030
:0C060600026E746CF090026F74D9F090DA
:0C06120002707469F090027174C7F090DF
:0C061E000272741AF0900273740FF090D6
:0C062A00027474C5F09002757439F090F1
:0C0636000276745CF0900277746AF09019
:0C0642000278745AF09002797467F0900E
:0C064E00027A740BF090027B7447F0906D
:0C065A00027C74F4F090027D7477F09044
:0C066600027E741EF090027F742BF09056
:0C067200000074A3F09000017410F090E0
:0C067E000002746BF09000037483F09095
:0C068A000004747CF09000057440F090B7
:0C069600000674BFF090000774B2F090F2
:0C06A20000087454F09000097428F090D7
:0C06AE00000A7420F090000B744DF090D6
:0C06BA00000C74B2F090000D74D4F090AD
:0C06C600000E74F8F090000F74A6F09085
:0C06D200001074E5F090001174B7F09077
:0C06DE0000127451F090001374BAF090F8
:0C06EA00001474E8F090001574D1F0903A
:0C06F60000167495F0900017749AF090B4
:0C070200001874FEF090001974ABF09029
:0C070E00001A740AF090001B7448F09070
:0C071A00001C7423F090001D74A2F090ED
:0C072600001E7470F090001F74B3F0907F
:0C073200002074CCF0900021747BF0904B
:0C073E000022748FF09000237444F090AF
:0C074A00002474F4F0900025745BF09023
:0C07560000267453F09000277478F09097
:0C0762000028747DF090002974E2F090F3
:0C076E00002A74F2F090002B74AFF090A1
:0C077A00002C74D2F090002D74BAF090A6
:0C078600002E7406F090002F740FF0900D
:0C079200003074EEF090003174A4F09080
:0C079E0000327437F09000337406F090C5
:0C07AA00003474E7F09000357404F09007
:0C07B6000036742CF09000377490F09026
:0C07C2000038743CF0900039748BF0900B
:0C07CE00003A74FDF090003B7454F09071
:0C07DA00003C74CDF090003D74B9F0902C
:0C07E600003E7494F090003F74ADF09061
:0C07F20000407464F0900041748EF090A0
:0C07FE0000427426F090004374DEF0907E
:0C080A000044748CF090004574C5F09020
:0C08160000467433F09000477492F0909C
:0C08220000487424F090004974EFF0903E
:0C082E00004A7476F090004B7434F09097
:0C083A00004C74C4F090004D74B8F090B5
:0C084600004E74ECF090004F74F1F09044
:0C0852000050749AF09000517479F090FE
:0C085E0000527461F09000537480F09020
:0C086A00005474C1F090005574BCF09074
:0C0876000056746DF09000577403F09071
:0C08820000587449F09000597495F090F3
:0C088E00005A7494F090005B74C8F09065
:0C089A00005C746FF090005D7414F0902E
:0C08A600005E74B0F090005F7416F090DB
:0C08B20000607414F09000617463F0901A
:0C08BE00006274D0F09000637494F0901D
:0C08CA00006474D9F09000657410F09088
:0C08D6000066744BF09000677444F090D2
:0C08E20000687403F090006974C2F0908C
:0C08EE00006A74CCF090006B7404F09071
:0C08FA00006C7468F090006D7498F09031
:0C090600006E746CF090006F74D9F090DB
:0C09120000707469F090007174C7F090E0
:0C091E000072741AF0900073740FF090D7
:0C092A00007474C5F09000757439F090F2
:0C0936000076745CF0900077746AF0901A
:0C0942000078745AF09000797467F0900F
:0C094E00007A740BF090007B7447F0906E
:0C095A00007C74F4F090007D7477F09045
:0B096600007E741EF090007F742BF0E8
:030971000200037E
:0500030012097480FEEB
:0E09740090FFFE7401F012098790FFFF7401DE
:05098200F090000022CE
:0C098700850082758301E0FA850082750E
:070993008300E0FB890EC0A8
:0A099A000E758200758302E0F5F08F
:0909A400EBA42508F508E5F03587
:0509AD000CF50CE4351F
:0609B2000DF50D74A58592
:0A09B80008F0A4F9EA89F0A425086C
:0C09C200F508758200758304E9F0E5F08B
:0609CE00350CF50CE435C8
:0409D4000DF50D858B
:0309D8000C088583
:0309DB000D0C758B
:0509DE000D00D00EA980
:0409E3000E750A0182
:0909E7007480250A5003020A94F1
:0409F000850A0E75F1
:0509F4000B00890EC09C
:0109F9000EEF
:0A09FA00850B82758302E0F5F0E53D
:090A04000AC3950BF582FC758311
:060A0D0000E0A42508F53D
:060A130008E5F0350CF5CA
:050A19000CE4350DF5B1
:0A0A1E000D850B82758304E0F5F0EE
:0A0A28008C82758301E0A42508F517
:060A320008E5F0350CF5AB
:050A38000CE4350DF592
:040A3D000DE50A05B4
:060A41000B950B70B4855B
:0A0A47000A82758302E0F5F0EBA4CB
:070A51002508F508E5F0356A
:050A58000CF50CE43573
:060A5D000DF50D74A585E6
:0A0A630008F0A4F9EA89F0A42508C0
:0A0A6D00F508850A82758304E9F09C
:080A7700E5F0350CF50CE43547
:040A7F000DF50D85DF
:030A83000C0885D7
:030A86000D0C75DF
:050A89000D00D00EA9D4
:040A8E000E050A0245
:020A920009E772
:030A9400750A8060
:090A97007401250A5003020B1141
:040AA000850A0EE5D0
:060AA4000AC39481F50B6A
:0A0AAA00850B82758302E0F5F0C3AE
:090AB400E50A950BFCF58275833F
:060ABD0000E0A42508F58D
:060AC30008E5F0350CF51A
:050AC9000CE4350DF501
:0A0ACE000D850B82758304E0F5F03E
:0A0AD8008C82758301E0A42508F567
:060AE20008E5F0350CF5FB
:050AE8000CE4350DF5E2
:060AED000D050B7480955D
:0A0AF3000B70B4E50AC39480F5828D
:080AFD00758304E508F0850C87
:030B050008850D53
:050B08000C750D000555
:040B0D000A020A9737
:0A0B110075827FE508F0758280E52B
:0A0B1B000CF0758200E0C39AF508A3
:030B2500750A80CE
:050B2800890EC00E85DE
:0A0B2D000A82758304E0F975830164
:0A0B3700E099758305F0D00EA90EB9
:070B4100150AE50A6003023A
:020B48000B2878
:0A0B4A00750A81E43400F50870011B
:010B5400227E
:0E0B5500850082758305E0758304F0850182BA
:0E0B6300758305E0758304F0850282758305B5
:0E0B7100E0758304F0850382758305E07583CB
:0E0B7F0004F0850482758305E0758304F0851B
:0E0B8D000582758305E0758304F08506827588
:0E0B9B008305E0758304F0850782758305E00D
:0E0BA900758304F0850882758305E07583046A
:0E0BB700F0850982758305E0758304F0850AD8
:0E0BC50082758305E0758304F0850B827583CD
:0E0BD30005E0758304F0850C82758305E075DE
:0E0BE1008304F0850D82758305E0758304F0B2
:0E0BEF00850E82758305E0758304F0850F8204
:0E0BFD00758305E0758304F08510827583050D
:0E0C0B00E0758304F0851182758305E0758322
:0E0C190004F0851282758305E0758304F08572
:0E0C27001382758305E0758304F085148275D1
:0E0C35008305E0758304F0851582758305E064
:0E0C4300758304F0851682758305E0758304C1
:0E0C5100F0851782758305E0758304F0851821
:0E0C5F0082758305E0758304F0851982758324
:0E0C6D0005E0758304F0851A82758305E07535
:0E0C7B008304F0851B82758305E0758304F009
:0E0C8900851C82758305E0758304F0851D824D
:0E0C9700758305E0758304F0851E8275830564
:0E0CA500E0758304F0851F82758305E075837A
:0E0CB30004F0852082758305E0758304F085CA
:0E0CC1002182758305E0758304F0852282751B
:0E0CCF008305E0758304F0852382758305E0BC
:0E0CDD00758304F0852482758305E075830419
:0E0CEB00F0852582758305E0758304F085266B
:0E0CF90082758305E0758304F085278275837C
:0E0D070005E0758304F0852882758305E0758C
:0E0D15008304F0852982758305E0758304F060
:0E0D2300852A82758305E0758304F0852B8296
:0E0D3100758305E0758304F0852C82758305BB
:0E0D3F00E0758304F0852D82758305E07583D1
:0E0D4D0004F0852E82758305E0758304F08521
:0E0D5B002F82758305E0758304F08530827564
:0E0D69008305E0758304F0853182758305E013
:0E0D7700758304F0853282758305E075830470
:0E0D8500F0853382758305E0758304F08534B4
:0E0D930082758305E0758304F08535827583D3
:0E0DA10005E0758304F0853682758305E075E4
:0E0DAF008304F0853782758305E0758304F0B8
:0E0DBD00853882758305E0758304F0853982E0
:0E0DCB00758305E0758304F0853A8275830513
:0E0DD900E0758304F0853B82758305E0758329
:0E0DE70004F0853C82758305E0758304F08579
:0E0DF5003D82758305E0758304F0853E8275AE
:0E0E03008305E0758304F0853F82758305E06A
:0E0E1100758304F0854082758305E0758304C7
:0E0E1F00F0854182758305E0758304F08542FD
:0E0E2D0082758305E0758304F085438275832A
:0E0E3B0005E0758304F0854482758305E0753B
:0E0E49008304F0854582758305E0758304F00F
:0E0E5700854682758305E0758304F085478229
:0E0E6500758305E0758304F08548827583056A
:0E0E7300E0758304F0854982758305E0758380
:0E0E810004F0854A82758305E0758304F085D0
:0E0E8F004B82758305E0758304F0854C8275F7
:0E0E9D008305E0758304F0854D82758305E0C2
:0E0EAB00758304F0854E82758305E07583041F
:0E0EB900F0854F82758305E0758304F0855047
:0E0EC70082758305E0758304F0855182758382
:0E0ED50005E0758304F0855282758305E07593
:0E0EE3008304F0855382758305E0758304F067
:0E0EF100855482758305E0758304F085558273
:0E0EFF00758305E0758304F0855682758305C2
:0E0F0D00E0758304F0855782758305E07583D7
:0E0F1B0004F0855882758305E0758304F08527
:0E0F29005982758305E0758304F0855A827540
:0E0F37008305E0758304F0855B82758305E019
:0E0F4500758304F0855C82758305E075830476
:0E0F5300F0855D82758305E0758304F0855E90
:0E0F610082758305E0758304F0855F827583D9
:0E0F6F0005E0758304F0856082758305E075EA
:0E0F7D008304F0856182758305E0758304F0BE
:0E0F8B00856282758305E0758304F0856382BC
:0E0F9900758305E0758304F085648275830519
:0E0FA700E0758304F0856582758305E075832F
:0E0FB50004F0856682758305E0758304F0857F
:0E0FC3006782758305E0758304F0856882758A
:0E0FD1008305E0758304F0856982758305E071
:0E0FDF00758304F0856A82758305E0758304CE
:0E0FED00F0856B82758305E0758304F0856CDA
:0E0FFB0082758305E0758304F0856D82758331
:0E10090005E0758304F0856E82758305E07541
:0E1017008304F0856F82758305E0758304F015
:0E102500857082758305E0758304F085718205
:0E103300758305E0758304F085728275830570
:0E104100E0758304F0857382758305E0758386
:0E104F0004F0857482758305E0758304F085D6
:0E105D007582758305E0758304F085768275D3
:0E106B008305E0758304F0857782758305E0C8
:0E107900758304F0857882758305E075830425
:0E108700F0857982758305E0758304F0857A23
:0E10950082758305E0758304F0857B82758388
:0E10A30005E0758304F0857C82758305E07599
:0E10B1008304F0857D82758305E0758304F06D
:0E10BF00857E82758305E0758304F0857F824F
:0A10CD00758305E0758304F022220C
:06003700E478FFF6D8FD9D
:080015007900E94400601B7A48
:05001D00009010DB78EB
:030022000075A0C6
:0A00250000E493F2A308B8000205FE
:08002F00A0D9F4DAF275A0FF7C
:08003D007800E84400600A7934
:030045000075A0A3
:0600480000E4F309D8FCFE
:08004E007800E84400600C7921
:0B00560000900000E4F0A3D8FCD9FAF1
:0300080075810EF1
:0A000B001210D7E582600302000323
:0410D70075820022FC
:00000001FF
